02RETORNO01COBRANCA       00000000000004153040PALMAS CART 2 TAB R T PROTEST 237BRADESCO       0905120160000000812                                                                                                                                                                                                                                                                          100512         000001
1022675075200016300000090239700045004                         000000000000024114770000000000000000000000000902090512000079982800000000000002411477160512000000011940423704154  000000000000000000000000000000000000000000000000000000000000000000000000000000000000000000000000000000000000000000000                          0000000000                                                                  000002
1022675075200016300000090239700045004                         000000000000024115150000000000000000000000000902090512000079982900000000000002411515160512000000204358523704154  000000000000000000000000000000000000000000000000000000000000000000000000000000000000000000000000000000000000000000000                          0000000000                                                                  000003
1022675075200016300000090239700045004                         0000000000000241154P000000000000000000000000090209051200007998300000000000000241154P160512000000117665823704154  000000000000000000000000000000000000000000000000000000000000000000000000000000000000000000000000000000000000000000000                          0000000000                                                                  000004
1022675075200016300000090239700045004                         000000000000024115740000000000000000000000000902090512000079983100000000000002411574160512000000108688823704154  000000000000000000000000000000000000000000000000000000000000000000000000000000000000000000000000000000000000000000000                          0000000000                                                                  000005
1022675075200016300000090239700045004                         000000000000024116040000000000000000000000000902090512000079983200000000000002411604160512000000034060023704154  000000000000000000000000000000000000000000000000000000000000000000000000000000000000000000000000000000000000000000000                          0000000000                                                                  000006
1022675075200016300000090239700045004                         000000000000024116390000000000000000000000000902090512000079983300000000000002411639160512000000123294323704154  000000000000000000000000000000000000000000000000000000000000000000000000000000000000000000000000000000000000000000000                          0000000000                                                                  000007
1022675075200016300000090239700045004                         000000000000024116630000000000000000000000000902090512000079983400000000000002411663160512000000107962823704154  000000000000000000000000000000000000000000000000000000000000000000000000000000000000000000000000000000000000000000000                          0000000000                                                                  000008
1022675075200016300000090239700045004                         000000000000024116980000000000000000000000000902090512000079983500000000000002411698160512000000068377323704154  000000000000000000000000000000000000000000000000000000000000000000000000000000000000000000000000000000000000000000000                          0000000000                                                                  000009
1022675075200016300000090239700045004                         000000000000024117280000000000000000000000000902090512000079983600000000000002411728160512000000011506323704154  000000000000000000000000000000000000000000000000000000000000000000000000000000000000000000000000000000000000000000000                          0000000000                                                                  000010
1022675075200016300000090239700045004                         000000000000024117440000000000000000000000000902090512000079983700000000000002411744160512000000018714323704154  000000000000000000000000000000000000000000000000000000000000000000000000000000000000000000000000000000000000000000000                          0000000000                                                                  000011
1022675075200016300000090239700045004                         000000000000024117520000000000000000000000000902090512000079983800000000000002411752160512000000071813423704154  000000000000000000000000000000000000000000000000000000000000000000000000000000000000000000000000000000000000000000000                          0000000000                                                                  000012
1022675075200016300000090239700045004                         000000000000024118090000000000000000000000000902090512000079983900000000000002411809160512000000032744223704154  000000000000000000000000000000000000000000000000000000000000000000000000000000000000000000000000000000000000000000000                          0000000000                                                                  000013
1022675075200016300000090239700045004                         000000000000024118250000000000000000000000000902090512000079984000000000000002411825160512000000020140023704154  000000000000000000000000000000000000000000000000000000000000000000000000000000000000000000000000000000000000000000000                          0000000000                                                                  000014
1022675075200016300000090239700045004                         000000000000024118330000000000000000000000000902090512000079984100000000000002411833160512000000104203423704154  000000000000000000000000000000000000000000000000000000000000000000000000000000000000000000000000000000000000000000000                          0000000000                                                                  000015
1022675075200016300000090239700045004                         000000000000024118680000000000000000000000000902090512000079984200000000000002411868160512000000010067723704154  000000000000000000000000000000000000000000000000000000000000000000000000000000000000000000000000000000000000000000000                          0000000000                                                                  000016
1022675075200016300000090239700045004                         000000000000024118840000000000000000000000000902090512000079984300000000000002411884160512000000091238323704154  000000000000000000000000000000000000000000000000000000000000000000000000000000000000000000000000000000000000000000000                          0000000000                                                                  000017
1022675075200016300000090239700045004                         000000000000024119060000000000000000000000000902090512000079984400000000000002411906160512000000250036323704154  000000000000000000000000000000000000000000000000000000000000000000000000000000000000000000000000000000000000000000000                          0000000000                                                                  000018
1022675075200016300000090239700045004                         000000000000024119220000000000000000000000000902090512000079984500000000000002411922160512000000010015723704154  000000000000000000000000000000000000000000000000000000000000000000000000000000000000000000000000000000000000000000000                          0000000000                                                                  000019
1022675075200016300000090239700045004                         000000000000024119300000000000000000000000000902090512000079984600000000000002411930160512000000013177423704154  000000000000000000000000000000000000000000000000000000000000000000000000000000000000000000000000000000000000000000000                          0000000000                                                                  000020
1022675075200016300000090239700045004                         000000000000024119490000000000000000000000000902090512000079984700000000000002411949160512000000157983223704154  000000000000000000000000000000000000000000000000000000000000000000000000000000000000000000000000000000000000000000000                          0000000000                                                                  000021
1022675075200016300000090239700045004                         000000000000024119570000000000000000000000000902090512000079984800000000000002411957160512000000006793023704154  000000000000000000000000000000000000000000000000000000000000000000000000000000000000000000000000000000000000000000000                          0000000000                                                                  000022
1022675075200016300000090239700045004                         000000000000024119650000000000000000000000000902090512000079984900000000000002411965160512000000003200223704154  000000000000000000000000000000000000000000000000000000000000000000000000000000000000000000000000000000000000000000000                          0000000000                                                                  000023
1022675075200016300000090239700045004                         000000000000024119730000000000000000000000000902090512000079985000000000000002411973160512000000046708123704154  000000000000000000000000000000000000000000000000000000000000000000000000000000000000000000000000000000000000000000000                          0000000000                                                                  000024
1022675075200016300000090239700045004                         000000000000024120070000000000000000000000000902090512000079985100000000000002412007160512000000003204023704154  000000000000000000000000000000000000000000000000000000000000000000000000000000000000000000000000000000000000000000000                          0000000000                                                                  000025
1022675075200016300000090239700045004                         000000000000024120150000000000000000000000000902090512000079985200000000000002412015160512000000010581823704154  000000000000000000000000000000000000000000000000000000000000000000000000000000000000000000000000000000000000000000000                          0000000000                                                                  000026
1022675075200016300000090239700045004                         000000000000024120230000000000000000000000000902090512000079985300000000000002412023160512000000011852123704154  000000000000000000000000000000000000000000000000000000000000000000000000000000000000000000000000000000000000000000000                          0000000000                                                                  000027
1022675075200016300000090239700045004                         000000000000024120310000000000000000000000000902090512000079985400000000000002412031160512000000051392223704154  000000000000000000000000000000000000000000000000000000000000000000000000000000000000000000000000000000000000000000000                          0000000000                                                                  000028
1022675075200016300000090239700045004                         000000000000024120580000000000000000000000000902090512000079985500000000000002412058160512000000028744223704154  000000000000000000000000000000000000000000000000000000000000000000000000000000000000000000000000000000000000000000000                          0000000000                                                                  000029
1022675075200016300000090239700045004                         000000000000024120660000000000000000000000000902090512000079985600000000000002412066160512000000003325323704154  000000000000000000000000000000000000000000000000000000000000000000000000000000000000000000000000000000000000000000000                          0000000000                                                                  000030
1022675075200016300000090239700045004                         000000000000024120740000000000000000000000000902090512000079985700000000000002412074160512000000006431823704154  000000000000000000000000000000000000000000000000000000000000000000000000000000000000000000000000000000000000000000000                          0000000000                                                                  000031
1022675075200016300000090239700045004                         000000000000024120820000000000000000000000000902090512000079985800000000000002412082160512000000002503623704154  000000000000000000000000000000000000000000000000000000000000000000000000000000000000000000000000000000000000000000000                          0000000000                                                                  000032
1022675075200016300000090239700045004                         000000000000024120900000000000000000000000000902090512000079985900000000000002412090160512000000002503523704154  000000000000000000000000000000000000000000000000000000000000000000000000000000000000000000000000000000000000000000000                          0000000000                                                                  000033
1022675075200016300000090239700045004                         000000000000024121040000000000000000000000000902090512000079986000000000000002412104160512000000006793023704154  000000000000000000000000000000000000000000000000000000000000000000000000000000000000000000000000000000000000000000000                          0000000000                                                                  000034
1022675075200016300000090239700045004                         000000000000024121120000000000000000000000000902090512000079986100000000000002412112160512000000002782123704154  000000000000000000000000000000000000000000000000000000000000000000000000000000000000000000000000000000000000000000000                          0000000000                                                                  000035
1022675075200016300000090239700045004                         000000000000024121200000000000000000000000000902090512000079986200000000000002412120160512000000002770223704154  000000000000000000000000000000000000000000000000000000000000000000000000000000000000000000000000000000000000000000000                          0000000000                                                                  000036
1022675075200016300000090239700045004                         000000000000024121390000000000000000000000000902090512000079986300000000000002412139160512000000003876023704154  000000000000000000000000000000000000000000000000000000000000000000000000000000000000000000000000000000000000000000000                          0000000000                                                                  000037
1022675075200016300000090239700045004                         000000000000024121470000000000000000000000000902090512000079986400000000000002412147160512000000169064223704154  000000000000000000000000000000000000000000000000000000000000000000000000000000000000000000000000000000000000000000000                          0000000000                                                                  000038
1022675075200016300000090239700045004                         0000000000000241218P000000000000000000000000090209051200007998650000000000000241218P160512000000005476023704154  000000000000000000000000000000000000000000000000000000000000000000000000000000000000000000000000000000000000000000000                          0000000000                                                                  000039
1022675075200016300000090239700045004                         000000000000024121980000000000000000000000000902090512000079986600000000000002412198160512000000005476023704154  000000000000000000000000000000000000000000000000000000000000000000000000000000000000000000000000000000000000000000000                          0000000000                                                                  000040
1022675075200016300000090239700045004                         000000000000024122010000000000000000000000000902090512000079986700000000000002412201160512000000005476023704154  000000000000000000000000000000000000000000000000000000000000000000000000000000000000000000000000000000000000000000000                          0000000000                                                                  000041
1022675075200016300000090239700045004                         0000000000000241221P000000000000000000000000090209051200007998680000000000000241221P160512000000031548123704154  000000000000000000000000000000000000000000000000000000000000000000000000000000000000000000000000000000000000000000000                          0000000000                                                                  000042
1022675075200016300000090239700045004                         000000000000024122440000000000000000000000000902090512000079986900000000000002412244160512000000034482123704154  000000000000000000000000000000000000000000000000000000000000000000000000000000000000000000000000000000000000000000000                          0000000000                                                                  000043
1022675075200016300000090239700045004                         000000000000024122790000000000000000000000000902090512000079987000000000000002412279160512000000042632823704154  000000000000000000000000000000000000000000000000000000000000000000000000000000000000000000000000000000000000000000000                          0000000000                                                                  000044
1022675075200016300000090239700045004                         000000000000024123090000000000000000000000000902090512000079987100000000000002412309160512000000738537923704154  000000000000000000000000000000000000000000000000000000000000000000000000000000000000000000000000000000000000000000000                          0000000000                                                                  000045
1022675075200016300000090239700045004                         000000000000024123330000000000000000000000000902090512000079987200000000000002412333160512000000071644823704154  000000000000000000000000000000000000000000000000000000000000000000000000000000000000000000000000000000000000000000000                          0000000000                                                                  000046
1022675075200016300000090239700045004                         000000000000024123840000000000000000000000000902090512000079987300000000000002412384160512000000030180123704154  000000000000000000000000000000000000000000000000000000000000000000000000000000000000000000000000000000000000000000000                          0000000000                                                                  000047
1022675075200016300000090239700045004                         000000000000024124140000000000000000000000000902090512000079987400000000000002412414160512000000000561623704154  000000000000000000000000000000000000000000000000000000000000000000000000000000000000000000000000000000000000000000000                          0000000000                                                                  000048
1022675075200016300000090239700045004                         000000000000024124220000000000000000000000000902090512000079987500000000000002412422160512000000000941123704154  000000000000000000000000000000000000000000000000000000000000000000000000000000000000000000000000000000000000000000000                          0000000000                                                                  000049
1022675075200016300000090239700045004                         000000000000024124300000000000000000000000000902090512000079987600000000000002412430160512000000001200923704154  000000000000000000000000000000000000000000000000000000000000000000000000000000000000000000000000000000000000000000000                          0000000000                                                                  000050
1022675075200016300000090239700045004                         000000000000024124490000000000000000000000000902090512000079987700000000000002412449160512000000001206423704154  000000000000000000000000000000000000000000000000000000000000000000000000000000000000000000000000000000000000000000000                          0000000000                                                                  000051
1022675075200016300000090239700045004                         000000000000024124570000000000000000000000000902090512000079987800000000000002412457160512000000001206423704154  000000000000000000000000000000000000000000000000000000000000000000000000000000000000000000000000000000000000000000000                          0000000000                                                                  000052
1022675075200016300000090239700045004                         000000000000024124650000000000000000000000000902090512000079987900000000000002412465160512000000001424523704154  000000000000000000000000000000000000000000000000000000000000000000000000000000000000000000000000000000000000000000000                          0000000000                                                                  000053
1022675075200016300000090239700045004                         000000000000024124730000000000000000000000000902090512000079988000000000000002412473160512000000001491823704154  000000000000000000000000000000000000000000000000000000000000000000000000000000000000000000000000000000000000000000000                          0000000000                                                                  000054
1022675075200016300000090239700045004                         000000000000024124810000000000000000000000000902090512000079988100000000000002412481160512000000001518623704154  000000000000000000000000000000000000000000000000000000000000000000000000000000000000000000000000000000000000000000000                          0000000000                                                                  000055
1022675075200016300000090239700045004                         0000000000000241249P000000000000000000000000090209051200007998820000000000000241249P160512000000001551923704154  000000000000000000000000000000000000000000000000000000000000000000000000000000000000000000000000000000000000000000000                          0000000000                                                                  000056
1022675075200016300000090239700045004                         000000000000024125030000000000000000000000000902090512000079988300000000000002412503160512000000001638623704154  000000000000000000000000000000000000000000000000000000000000000000000000000000000000000000000000000000000000000000000                          0000000000                                                                  000057
1022675075200016300000090239700045004                         000000000000024125110000000000000000000000000902090512000079988400000000000002412511160512000000001907323704154  000000000000000000000000000000000000000000000000000000000000000000000000000000000000000000000000000000000000000000000                          0000000000                                                                  000058
1022675075200016300000090239700045004                         0000000000000241252P000000000000000000000000090209051200007998850000000000000241252P160512000000001926023704154  000000000000000000000000000000000000000000000000000000000000000000000000000000000000000000000000000000000000000000000                          0000000000                                                                  000059
1022675075200016300000090239700045004                         000000000000024125380000000000000000000000000902090512000079988600000000000002412538160512000000002090223704154  000000000000000000000000000000000000000000000000000000000000000000000000000000000000000000000000000000000000000000000                          0000000000                                                                  000060
1022675075200016300000090239700045004                         000000000000024125460000000000000000000000000902090512000079988700000000000002412546160512000000002107723704154  000000000000000000000000000000000000000000000000000000000000000000000000000000000000000000000000000000000000000000000                          0000000000                                                                  000061
1022675075200016300000090239700045004                         000000000000024125540000000000000000000000000902090512000079988800000000000002412554160512000000002170223704154  000000000000000000000000000000000000000000000000000000000000000000000000000000000000000000000000000000000000000000000                          0000000000                                                                  000062
1022675075200016300000090239700045004                         000000000000024125620000000000000000000000000902090512000079988900000000000002412562160512000000002436223704154  000000000000000000000000000000000000000000000000000000000000000000000000000000000000000000000000000000000000000000000                          0000000000                                                                  000063
1022675075200016300000090239700045004                         000000000000024125700000000000000000000000000902090512000079989000000000000002412570160512000000002634823704154  000000000000000000000000000000000000000000000000000000000000000000000000000000000000000000000000000000000000000000000                          0000000000                                                                  000064
1022675075200016300000090239700045004                         000000000000024125890000000000000000000000000902090512000079989100000000000002412589160512000000002784623704154  000000000000000000000000000000000000000000000000000000000000000000000000000000000000000000000000000000000000000000000                          0000000000                                                                  000065
1022675075200016300000090239700045004                         000000000000024125970000000000000000000000000902090512000079989200000000000002412597160512000000002857223704154  000000000000000000000000000000000000000000000000000000000000000000000000000000000000000000000000000000000000000000000                          0000000000                                                                  000066
1022675075200016300000090239700045004                         000000000000024126000000000000000000000000000902090512000079989300000000000002412600160512000000002887823704154  000000000000000000000000000000000000000000000000000000000000000000000000000000000000000000000000000000000000000000000                          0000000000                                                                  000067
1022675075200016300000090239700045004                         000000000000024126190000000000000000000000000902090512000079989400000000000002412619160512000000003711423704154  000000000000000000000000000000000000000000000000000000000000000000000000000000000000000000000000000000000000000000000                          0000000000                                                                  000068
1022675075200016300000090239700045004                         000000000000024126270000000000000000000000000902090512000079989500000000000002412627160512000000004248923704154  000000000000000000000000000000000000000000000000000000000000000000000000000000000000000000000000000000000000000000000                          0000000000                                                                  000069
1022675075200016300000090239700045004                         000000000000024126350000000000000000000000000902090512000079989600000000000002412635160512000000004576023704154  000000000000000000000000000000000000000000000000000000000000000000000000000000000000000000000000000000000000000000000                          0000000000                                                                  000070
1022675075200016300000090239700045004                         000000000000024126430000000000000000000000000902090512000079989700000000000002412643160512000000005456723704154  000000000000000000000000000000000000000000000000000000000000000000000000000000000000000000000000000000000000000000000                          0000000000                                                                  000071
1022675075200016300000090239700045004                         000000000000024126510000000000000000000000000902090512000079989800000000000002412651160512000000006041223704154  000000000000000000000000000000000000000000000000000000000000000000000000000000000000000000000000000000000000000000000                          0000000000                                                                  000072
1022675075200016300000090239700045004                         0000000000000241266P000000000000000000000000090209051200007998990000000000000241266P160512000000006432923704154  000000000000000000000000000000000000000000000000000000000000000000000000000000000000000000000000000000000000000000000                          0000000000                                                                  000073
1022675075200016300000090239700045004                         000000000000024126780000000000000000000000000902090512000079990000000000000002412678160512000000006621823704154  000000000000000000000000000000000000000000000000000000000000000000000000000000000000000000000000000000000000000000000                          0000000000                                                                  000074
1022675075200016300000090239700045004                         000000000000024126860000000000000000000000000902090512000079990100000000000002412686160512000000006629823704154  000000000000000000000000000000000000000000000000000000000000000000000000000000000000000000000000000000000000000000000                          0000000000                                                                  000075
1022675075200016300000090239700045004                         000000000000024126940000000000000000000000000902090512000079990200000000000002412694160512000000006887723704154  000000000000000000000000000000000000000000000000000000000000000000000000000000000000000000000000000000000000000000000                          0000000000                                                                  000076
1022675075200016300000090239700045004                         000000000000024127080000000000000000000000000902090512000079990300000000000002412708160512000000007004623704154  000000000000000000000000000000000000000000000000000000000000000000000000000000000000000000000000000000000000000000000                          0000000000                                                                  000077
1022675075200016300000090239700045004                         000000000000024127160000000000000000000000000902090512000079990400000000000002412716160512000000007181823704154  000000000000000000000000000000000000000000000000000000000000000000000000000000000000000000000000000000000000000000000                          0000000000                                                                  000078
1022675075200016300000090239700045004                         000000000000024127240000000000000000000000000902090512000079990500000000000002412724160512000000007348323704154  000000000000000000000000000000000000000000000000000000000000000000000000000000000000000000000000000000000000000000000                          0000000000                                                                  000079
1022675075200016300000090239700045004                         000000000000024127320000000000000000000000000902090512000079990600000000000002412732160512000000007823023704154  000000000000000000000000000000000000000000000000000000000000000000000000000000000000000000000000000000000000000000000                          0000000000                                                                  000080
1022675075200016300000090239700045004                         000000000000024127400000000000000000000000000902090512000079990700000000000002412740160512000000008591823704154  000000000000000000000000000000000000000000000000000000000000000000000000000000000000000000000000000000000000000000000                          0000000000                                                                  000081
1022675075200016300000090239700045004                         000000000000024127590000000000000000000000000902090512000079990800000000000002412759160512000000008611823704154  000000000000000000000000000000000000000000000000000000000000000000000000000000000000000000000000000000000000000000000                          0000000000                                                                  000082
1022675075200016300000090239700045004                         000000000000024127670000000000000000000000000902090512000079990900000000000002412767160512000000008645823704154  000000000000000000000000000000000000000000000000000000000000000000000000000000000000000000000000000000000000000000000                          0000000000                                                                  000083
1022675075200016300000090239700045004                         000000000000024127750000000000000000000000000902090512000079991000000000000002412775160512000000009461623704154  000000000000000000000000000000000000000000000000000000000000000000000000000000000000000000000000000000000000000000000                          0000000000                                                                  000084
1022675075200016300000090239700045004                         000000000000024127830000000000000000000000000902090512000079991100000000000002412783160512000000009476223704154  000000000000000000000000000000000000000000000000000000000000000000000000000000000000000000000000000000000000000000000                          0000000000                                                                  000085
1022675075200016300000090239700045004                         000000000000024127910000000000000000000000000902090512000079991200000000000002412791160512000000009922823704154  000000000000000000000000000000000000000000000000000000000000000000000000000000000000000000000000000000000000000000000                          0000000000                                                                  000086
1022675075200016300000090239700045004                         000000000000024128050000000000000000000000000902090512000079991300000000000002412805160512000000010954123704154  000000000000000000000000000000000000000000000000000000000000000000000000000000000000000000000000000000000000000000000                          0000000000                                                                  000087
1022675075200016300000090239700045004                         000000000000024128130000000000000000000000000902090512000079991400000000000002412813160512000000010980023704154  000000000000000000000000000000000000000000000000000000000000000000000000000000000000000000000000000000000000000000000                          0000000000                                                                  000088
1022675075200016300000090239700045004                         000000000000024128210000000000000000000000000902090512000079991500000000000002412821160512000000011400123704154  000000000000000000000000000000000000000000000000000000000000000000000000000000000000000000000000000000000000000000000                          0000000000                                                                  000089
1022675075200016300000090239700045004                         0000000000000241283P000000000000000000000000090209051200007999160000000000000241283P160512000000012580023704154  000000000000000000000000000000000000000000000000000000000000000000000000000000000000000000000000000000000000000000000                          0000000000                                                                  000090
1022675075200016300000090239700045004                         000000000000024128480000000000000000000000000902090512000079991700000000000002412848160512000000012881223704154  000000000000000000000000000000000000000000000000000000000000000000000000000000000000000000000000000000000000000000000                          0000000000                                                                  000091
1022675075200016300000090239700045004                         000000000000024128560000000000000000000000000902090512000079991800000000000002412856160512000000013030223704154  000000000000000000000000000000000000000000000000000000000000000000000000000000000000000000000000000000000000000000000                          0000000000                                                                  000092
1022675075200016300000090239700045004                         000000000000024128640000000000000000000000000902090512000079991900000000000002412864160512000000013264423704154  000000000000000000000000000000000000000000000000000000000000000000000000000000000000000000000000000000000000000000000                          0000000000                                                                  000093
1022675075200016300000090239700045004                         000000000000024128720000000000000000000000000902090512000079992000000000000002412872160512000000013606123704154  000000000000000000000000000000000000000000000000000000000000000000000000000000000000000000000000000000000000000000000                          0000000000                                                                  000094
1022675075200016300000090239700045004                         000000000000024128800000000000000000000000000902090512000079992100000000000002412880160512000000014808423704154  000000000000000000000000000000000000000000000000000000000000000000000000000000000000000000000000000000000000000000000                          0000000000                                                                  000095
1022675075200016300000090239700045004                         000000000000024128990000000000000000000000000902090512000079992200000000000002412899160512000000016677023704154  000000000000000000000000000000000000000000000000000000000000000000000000000000000000000000000000000000000000000000000                          0000000000                                                                  000096
1022675075200016300000090239700045004                         000000000000024129020000000000000000000000000902090512000079992300000000000002412902160512000000019303723704154  000000000000000000000000000000000000000000000000000000000000000000000000000000000000000000000000000000000000000000000                          0000000000                                                                  000097
1022675075200016300000090239700045004                         000000000000024129100000000000000000000000000902090512000079992400000000000002412910160512000000020577323704154  000000000000000000000000000000000000000000000000000000000000000000000000000000000000000000000000000000000000000000000                          0000000000                                                                  000098
1022675075200016300000090239700045004                         000000000000024129290000000000000000000000000902090512000079992500000000000002412929160512000000023909723704154  000000000000000000000000000000000000000000000000000000000000000000000000000000000000000000000000000000000000000000000                          0000000000                                                                  000099
1022675075200016300000090239700045004                         000000000000024129370000000000000000000000000902090512000079992600000000000002412937160512000000023941523704154  000000000000000000000000000000000000000000000000000000000000000000000000000000000000000000000000000000000000000000000                          0000000000                                                                  000100
1022675075200016300000090239700045004                         000000000000024129450000000000000000000000000902090512000079992700000000000002412945160512000000027930323704154  000000000000000000000000000000000000000000000000000000000000000000000000000000000000000000000000000000000000000000000                          0000000000                                                                  000101
1022675075200016300000090239700045004                         000000000000024129530000000000000000000000000902090512000079992800000000000002412953160512000000033052023704154  000000000000000000000000000000000000000000000000000000000000000000000000000000000000000000000000000000000000000000000                          0000000000                                                                  000102
1022675075200016300000090239700045004                         000000000000024129610000000000000000000000000902090512000079992900000000000002412961160512000000040485223704154  000000000000000000000000000000000000000000000000000000000000000000000000000000000000000000000000000000000000000000000                          0000000000                                                                  000103
1022675075200016300000090239700045004                         0000000000000241297P000000000000000000000000090209051200007999300000000000000241297P160512000000052794223704154  000000000000000000000000000000000000000000000000000000000000000000000000000000000000000000000000000000000000000000000                          0000000000                                                                  000104
1022675075200016300000090239700045004                         000000000000024129880000000000000000000000000902090512000079993100000000000002412988160512000000086166823704154  000000000000000000000000000000000000000000000000000000000000000000000000000000000000000000000000000000000000000000000                          0000000000                                                                  000105
1022675075200016300000090239700045004                         000000000000024129960000000000000000000000000902090512000079993200000000000002412996160512000000113247223704154  000000000000000000000000000000000000000000000000000000000000000000000000000000000000000000000000000000000000000000000                          0000000000                                                                  000106
1022675075200016300000090239700045004                         000000000000024130030000000000000000000000000902090512000079993300000000000002413003160512000000854430023704154  000000000000000000000000000000000000000000000000000000000000000000000000000000000000000000000000000000000000000000000                          0000000000                                                                  000107
1022675075200016300000090239700045004                         000000000000024130110000000000000000000000000902090512000079993400000000000002413011160512000000000526123704154  000000000000000000000000000000000000000000000000000000000000000000000000000000000000000000000000000000000000000000000                          0000000000                                                                  000108
1022675075200016300000090239700045004                         0000000000000241302P000000000000000000000000090209051200007999350000000000000241302P160512000000000691623704154  000000000000000000000000000000000000000000000000000000000000000000000000000000000000000000000000000000000000000000000                          0000000000                                                                  000109
1022675075200016300000090239700045004                         000000000000024130380000000000000000000000000902090512000079993600000000000002413038160512000000000711623704154  000000000000000000000000000000000000000000000000000000000000000000000000000000000000000000000000000000000000000000000                          0000000000                                                                  000110
1022675075200016300000090239700045004                         000000000000024130460000000000000000000000000902090512000079993700000000000002413046160512000000001313823704154  000000000000000000000000000000000000000000000000000000000000000000000000000000000000000000000000000000000000000000000                          0000000000                                                                  000111
1022675075200016300000090239700045004                         000000000000024130540000000000000000000000000902090512000079993800000000000002413054160512000000001484523704154  000000000000000000000000000000000000000000000000000000000000000000000000000000000000000000000000000000000000000000000                          0000000000                                                                  000112
1022675075200016300000090239700045004                         000000000000024130620000000000000000000000000902090512000079993900000000000002413062160512000000001741123704154  000000000000000000000000000000000000000000000000000000000000000000000000000000000000000000000000000000000000000000000                          0000000000                                                                  000113
1022675075200016300000090239700045004                         000000000000024130700000000000000000000000000902090512000079994000000000000002413070160512000000001752023704154  000000000000000000000000000000000000000000000000000000000000000000000000000000000000000000000000000000000000000000000                          0000000000                                                                  000114
1022675075200016300000090239700045004                         000000000000024130890000000000000000000000000902090512000079994100000000000002413089160512000000001752023704154  000000000000000000000000000000000000000000000000000000000000000000000000000000000000000000000000000000000000000000000                          0000000000                                                                  000115
1022675075200016300000090239700045004                         000000000000024130970000000000000000000000000902090512000079994200000000000002413097160512000000002000223704154  000000000000000000000000000000000000000000000000000000000000000000000000000000000000000000000000000000000000000000000                          0000000000                                                                  000116
1022675075200016300000090239700045004                         000000000000024131000000000000000000000000000902090512000079994300000000000002413100160512000000002370223704154  000000000000000000000000000000000000000000000000000000000000000000000000000000000000000000000000000000000000000000000                          0000000000                                                                  000117
1022675075200016300000090239700045004                         000000000000024131190000000000000000000000000902090512000079994400000000000002413119160512000000002745223704154  000000000000000000000000000000000000000000000000000000000000000000000000000000000000000000000000000000000000000000000                          0000000000                                                                  000118
1022675075200016300000090239700045004                         000000000000024131270000000000000000000000000902090512000079994500000000000002413127160512000000003157823704154  000000000000000000000000000000000000000000000000000000000000000000000000000000000000000000000000000000000000000000000                          0000000000                                                                  000119
1022675075200016300000090239700045004                         000000000000024131350000000000000000000000000902090512000079994600000000000002413135160512000000003546023704154  000000000000000000000000000000000000000000000000000000000000000000000000000000000000000000000000000000000000000000000                          0000000000                                                                  000120
1022675075200016300000090239700045004                         000000000000024131430000000000000000000000000902090512000079994700000000000002413143160512000000003596023704154  000000000000000000000000000000000000000000000000000000000000000000000000000000000000000000000000000000000000000000000                          0000000000                                                                  000121
1022675075200016300000090239700045004                         000000000000024131510000000000000000000000000902090512000079994800000000000002413151160512000000003636023704154  000000000000000000000000000000000000000000000000000000000000000000000000000000000000000000000000000000000000000000000                          0000000000                                                                  000122
1022675075200016300000090239700045004                         0000000000000241316P000000000000000000000000090209051200007999490000000000000241316P160512000000003689423704154  000000000000000000000000000000000000000000000000000000000000000000000000000000000000000000000000000000000000000000000                          0000000000                                                                  000123
1022675075200016300000090239700045004                         000000000000024131780000000000000000000000000902090512000079995000000000000002413178160512000000003920723704154  000000000000000000000000000000000000000000000000000000000000000000000000000000000000000000000000000000000000000000000                          0000000000                                                                  000124
1022675075200016300000090239700045004                         000000000000024131860000000000000000000000000902090512000079995100000000000002413186160512000000004207423704154  000000000000000000000000000000000000000000000000000000000000000000000000000000000000000000000000000000000000000000000                          0000000000                                                                  000125
1022675075200016300000090239700045004                         000000000000024131940000000000000000000000000902090512000079995200000000000002413194160512000000004682423704154  000000000000000000000000000000000000000000000000000000000000000000000000000000000000000000000000000000000000000000000                          0000000000                                                                  000126
1022675075200016300000090239700045004                         000000000000024132080000000000000000000000000902090512000079995300000000000002413208160512000000005023523704154  000000000000000000000000000000000000000000000000000000000000000000000000000000000000000000000000000000000000000000000                          0000000000                                                                  000127
1022675075200016300000090239700045004                         000000000000024132160000000000000000000000000902090512000079995400000000000002413216160512000000005476023704154  000000000000000000000000000000000000000000000000000000000000000000000000000000000000000000000000000000000000000000000                          0000000000                                                                  000128
1022675075200016300000090239700045004                         000000000000024132240000000000000000000000000902090512000079995500000000000002413224160512000000005674823704154  000000000000000000000000000000000000000000000000000000000000000000000000000000000000000000000000000000000000000000000                          0000000000                                                                  000129
1022675075200016300000090239700045004                         000000000000024132320000000000000000000000000902090512000079995600000000000002413232160512000000005763923704154  000000000000000000000000000000000000000000000000000000000000000000000000000000000000000000000000000000000000000000000                          0000000000                                                                  000130
1022675075200016300000090239700045004                         000000000000024132400000000000000000000000000902090512000079995700000000000002413240160512000000005771823704154  000000000000000000000000000000000000000000000000000000000000000000000000000000000000000000000000000000000000000000000                          0000000000                                                                  000131
1022675075200016300000090239700045004                         000000000000024132590000000000000000000000000902090512000079995800000000000002413259160512000000006162623704154  000000000000000000000000000000000000000000000000000000000000000000000000000000000000000000000000000000000000000000000                          0000000000                                                                  000132
1022675075200016300000090239700045004                         000000000000024132670000000000000000000000000902090512000079995900000000000002413267160512000000006206523704154  000000000000000000000000000000000000000000000000000000000000000000000000000000000000000000000000000000000000000000000                          0000000000                                                                  000133
1022675075200016300000090239700045004                         000000000000024132750000000000000000000000000902090512000079996000000000000002413275160512000000006301823704154  000000000000000000000000000000000000000000000000000000000000000000000000000000000000000000000000000000000000000000000                          0000000000                                                                  000134
1022675075200016300000090239700045004                         000000000000024132830000000000000000000000000902090512000079996100000000000002413283160512000000006321823704154  000000000000000000000000000000000000000000000000000000000000000000000000000000000000000000000000000000000000000000000                          0000000000                                                                  000135
1022675075200016300000090239700045004                         000000000000024132910000000000000000000000000902090512000079996200000000000002413291160512000000007176023704154  000000000000000000000000000000000000000000000000000000000000000000000000000000000000000000000000000000000000000000000                          0000000000                                                                  000136
1022675075200016300000090239700045004                         000000000000024133050000000000000000000000000902090512000079996300000000000002413305160512000000007176023704154  000000000000000000000000000000000000000000000000000000000000000000000000000000000000000000000000000000000000000000000                          0000000000                                                                  000137
1022675075200016300000090239700045004                         000000000000024133130000000000000000000000000902090512000079996400000000000002413313160512000000007384823704154  000000000000000000000000000000000000000000000000000000000000000000000000000000000000000000000000000000000000000000000                          0000000000                                                                  000138
1022675075200016300000090239700045004                         000000000000024133210000000000000000000000000902090512000079996500000000000002413321160512000000007673823704154  000000000000000000000000000000000000000000000000000000000000000000000000000000000000000000000000000000000000000000000                          0000000000                                                                  000139
1022675075200016300000090239700045004                         0000000000000241333P000000000000000000000000090209051200007999660000000000000241333P160512000000009315823704154  000000000000000000000000000000000000000000000000000000000000000000000000000000000000000000000000000000000000000000000                          0000000000                                                                  000140
1022675075200016300000090239700045004                         000000000000024133480000000000000000000000000902090512000079996700000000000002413348160512000000010385323704154  000000000000000000000000000000000000000000000000000000000000000000000000000000000000000000000000000000000000000000000                          0000000000                                                                  000141
1022675075200016300000090239700045004                         000000000000024133560000000000000000000000000902090512000079996800000000000002413356160512000000011544123704154  000000000000000000000000000000000000000000000000000000000000000000000000000000000000000000000000000000000000000000000                          0000000000                                                                  000142
1022675075200016300000090239700045004                         000000000000024133640000000000000000000000000902090512000079996900000000000002413364160512000000013072523704154  000000000000000000000000000000000000000000000000000000000000000000000000000000000000000000000000000000000000000000000                          0000000000                                                                  000143
1022675075200016300000090239700045004                         000000000000024133720000000000000000000000000902090512000079997000000000000002413372160512000000013123223704154  000000000000000000000000000000000000000000000000000000000000000000000000000000000000000000000000000000000000000000000                          0000000000                                                                  000144
1022675075200016300000090239700045004                         000000000000024133800000000000000000000000000902090512000079997100000000000002413380160512000000013899123704154  000000000000000000000000000000000000000000000000000000000000000000000000000000000000000000000000000000000000000000000                          0000000000                                                                  000145
1022675075200016300000090239700045004                         000000000000024133990000000000000000000000000902090512000079997200000000000002413399160512000000013915023704154  000000000000000000000000000000000000000000000000000000000000000000000000000000000000000000000000000000000000000000000                          0000000000                                                                  000146
1022675075200016300000090239700045004                         000000000000024134020000000000000000000000000902090512000079997300000000000002413402160512000000014093023704154  000000000000000000000000000000000000000000000000000000000000000000000000000000000000000000000000000000000000000000000                          0000000000                                                                  000147
1022675075200016300000090239700045004                         000000000000024134100000000000000000000000000902090512000079997400000000000002413410160512000000017092123704154  000000000000000000000000000000000000000000000000000000000000000000000000000000000000000000000000000000000000000000000                          0000000000                                                                  000148
1022675075200016300000090239700045004                         000000000000024134290000000000000000000000000902090512000079997500000000000002413429160512000000021791323704154  000000000000000000000000000000000000000000000000000000000000000000000000000000000000000000000000000000000000000000000                          0000000000                                                                  000149
1022675075200016300000090239700045004                         000000000000024134370000000000000000000000000902090512000079997600000000000002413437160512000000021791423704154  000000000000000000000000000000000000000000000000000000000000000000000000000000000000000000000000000000000000000000000                          0000000000                                                                  000150
1022675075200016300000090239700045004                         000000000000024134450000000000000000000000000902090512000079997700000000000002413445160512000000023207223704154  000000000000000000000000000000000000000000000000000000000000000000000000000000000000000000000000000000000000000000000                          0000000000                                                                  000151
1022675075200016300000090239700045004                         000000000000024134530000000000000000000000000902090512000079997800000000000002413453160512000000025302123704154  000000000000000000000000000000000000000000000000000000000000000000000000000000000000000000000000000000000000000000000                          0000000000                                                                  000152
1022675075200016300000090239700045004                         000000000000024134610000000000000000000000000902090512000079997900000000000002413461160512000000025375923704154  000000000000000000000000000000000000000000000000000000000000000000000000000000000000000000000000000000000000000000000                          0000000000                                                                  000153
1022675075200016300000090239700045004                         0000000000000241347P000000000000000000000000090209051200007999800000000000000241347P160512000000029601523704154  000000000000000000000000000000000000000000000000000000000000000000000000000000000000000000000000000000000000000000000                          0000000000                                                                  000154
1022675075200016300000090239700045004                         000000000000024134880000000000000000000000000902090512000079998100000000000002413488160512000000031938623704154  000000000000000000000000000000000000000000000000000000000000000000000000000000000000000000000000000000000000000000000                          0000000000                                                                  000155
1022675075200016300000090239700045004                         000000000000024134960000000000000000000000000902090512000079998200000000000002413496160512000000033824923704154  000000000000000000000000000000000000000000000000000000000000000000000000000000000000000000000000000000000000000000000                          0000000000                                                                  000156
1022675075200016300000090239700045004                         0000000000000241350P000000000000000000000000090209051200007999830000000000000241350P160512000000037134423704154  000000000000000000000000000000000000000000000000000000000000000000000000000000000000000000000000000000000000000000000                          0000000000                                                                  000157
1022675075200016300000090239700045004                         000000000000024135180000000000000000000000000902090512000079998400000000000002413518160512000000039676123704154  000000000000000000000000000000000000000000000000000000000000000000000000000000000000000000000000000000000000000000000                          0000000000                                                                  000158
1022675075200016300000090239700045004                         000000000000024135260000000000000000000000000902090512000079998500000000000002413526160512000000040242323704154  000000000000000000000000000000000000000000000000000000000000000000000000000000000000000000000000000000000000000000000                          0000000000                                                                  000159
1022675075200016300000090239700045004                         000000000000024135340000000000000000000000000902090512000079998600000000000002413534160512000000043164923704154  000000000000000000000000000000000000000000000000000000000000000000000000000000000000000000000000000000000000000000000                          0000000000                                                                  000160
1022675075200016300000090239700045004                         000000000000024135420000000000000000000000000902090512000079998700000000000002413542160512000000043345623704154  000000000000000000000000000000000000000000000000000000000000000000000000000000000000000000000000000000000000000000000                          0000000000                                                                  000161
1022675075200016300000090239700045004                         000000000000024135500000000000000000000000000902090512000079998800000000000002413550160512000000047723223704154  000000000000000000000000000000000000000000000000000000000000000000000000000000000000000000000000000000000000000000000                          0000000000                                                                  000162
1022675075200016300000090239700045004                         000000000000024135690000000000000000000000000902090512000079998900000000000002413569160512000000048383223704154  000000000000000000000000000000000000000000000000000000000000000000000000000000000000000000000000000000000000000000000                          0000000000                                                                  000163
1022675075200016300000090239700045004                         000000000000024135770000000000000000000000000902090512000079999000000000000002413577160512000000048398123704154  000000000000000000000000000000000000000000000000000000000000000000000000000000000000000000000000000000000000000000000                          0000000000                                                                  000164
1022675075200016300000090239700045004                         000000000000024135850000000000000000000000000902090512000079999100000000000002413585160512000000049014923704154  000000000000000000000000000000000000000000000000000000000000000000000000000000000000000000000000000000000000000000000                          0000000000                                                                  000165
1022675075200016300000090239700045004                         000000000000024135930000000000000000000000000902090512000079999200000000000002413593160512000000053958923704154  000000000000000000000000000000000000000000000000000000000000000000000000000000000000000000000000000000000000000000000                          0000000000                                                                  000166
1022675075200016300000090239700045004                         000000000000024136070000000000000000000000000902090512000079999300000000000002413607160512000000057100223704154  000000000000000000000000000000000000000000000000000000000000000000000000000000000000000000000000000000000000000000000                          0000000000                                                                  000167
1022675075200016300000090239700045004                         000000000000024136150000000000000000000000000902090512000079999400000000000002413615160512000000061946923704154  000000000000000000000000000000000000000000000000000000000000000000000000000000000000000000000000000000000000000000000                          0000000000                                                                  000168
1022675075200016300000090239700045004                         000000000000024136230000000000000000000000000902090512000079999500000000000002413623160512000000067953223704154  000000000000000000000000000000000000000000000000000000000000000000000000000000000000000000000000000000000000000000000                          0000000000                                                                  000169
1022675075200016300000090239700045004                         000000000000024136310000000000000000000000000902090512000079999600000000000002413631160512000000071029823704154  000000000000000000000000000000000000000000000000000000000000000000000000000000000000000000000000000000000000000000000                          0000000000                                                                  000170
1022675075200016300000090239700045004                         0000000000000241364P000000000000000000000000090209051200007999970000000000000241364P160512000000087933223704154  000000000000000000000000000000000000000000000000000000000000000000000000000000000000000000000000000000000000000000000                          0000000000                                                                  000171
1022675075200016300000090239700045004                         000000000000024136580000000000000000000000000902090512000079999800000000000002413658160512000000186331323704154  000000000000000000000000000000000000000000000000000000000000000000000000000000000000000000000000000000000000000000000                          0000000000                                                                  000172
1022675075200016300000090239700045004                         000000000000024136660000000000000000000000000902090512000079999900000000000002413666160512000000201247223704154  000000000000000000000000000000000000000000000000000000000000000000000000000000000000000000000000000000000000000000000                          0000000000                                                                  000173
1022675075200016300000090239700045004                         000000000000024136740000000000000000000000000902090512000080000000000000000002413674160512000000204921523704154  000000000000000000000000000000000000000000000000000000000000000000000000000000000000000000000000000000000000000000000                          0000000000                                                                  000174
1022675075200016300000090239700045004                         000000000000024136820000000000000000000000000902090512000080000100000000000002413682160512000000560163223704154  000000000000000000000000000000000000000000000000000000000000000000000000000000000000000000000000000000000000000000000                          0000000000                                                                  000175
1022675075200016300000090239700045004                         000000000000024136900000000000000000000000000902090512000080000200000000000002413690160512000000004642923704154  000000000000000000000000000000000000000000000000000000000000000000000000000000000000000000000000000000000000000000000                          0000000000                                                                  000176
1022675075200016300000090239700045004                         000000000000024137040000000000000000000000000902090512000080000300000000000002413704160512000000006039123704154  000000000000000000000000000000000000000000000000000000000000000000000000000000000000000000000000000000000000000000000                          0000000000                                                                  000177
1022675075200016300000090239700045004                         000000000000024137120000000000000000000000000902090512000080000400000000000002413712160512000000006581823704154  000000000000000000000000000000000000000000000000000000000000000000000000000000000000000000000000000000000000000000000                          0000000000                                                                  000178
1022675075200016300000090239700045004                         000000000000024137200000000000000000000000000902090512000080000500000000000002413720160512000000009095423704154  000000000000000000000000000000000000000000000000000000000000000000000000000000000000000000000000000000000000000000000                          0000000000                                                                  000179
1022675075200016300000090239700045004                         000000000000024137390000000000000000000000000902090512000080000600000000000002413739160512000000009625523704154  000000000000000000000000000000000000000000000000000000000000000000000000000000000000000000000000000000000000000000000                          0000000000                                                                  000180
1022675075200016300000090239700045004                         000000000000024137470000000000000000000000000902090512000080000700000000000002413747160512000000009914023704154  000000000000000000000000000000000000000000000000000000000000000000000000000000000000000000000000000000000000000000000                          0000000000                                                                  000181
1022675075200016300000090239700045004                         000000000000024137550000000000000000000000000902090512000080000800000000000002413755160512000000010698923704154  000000000000000000000000000000000000000000000000000000000000000000000000000000000000000000000000000000000000000000000                          0000000000                                                                  000182
1022675075200016300000090239700045004                         000000000000024137630000000000000000000000000902090512000080000900000000000002413763160512000000014845123704154  000000000000000000000000000000000000000000000000000000000000000000000000000000000000000000000000000000000000000000000                          0000000000                                                                  000183
1022675075200016300000090239700045004                         000000000000024137710000000000000000000000000902090512000080001000000000000002413771160512000000017399323704154  000000000000000000000000000000000000000000000000000000000000000000000000000000000000000000000000000000000000000000000                          0000000000                                                                  000184
1022675075200016300000090239700045004                         0000000000000241378P000000000000000000000000090209051200008000110000000000000241378P160512000000017602123704154  000000000000000000000000000000000000000000000000000000000000000000000000000000000000000000000000000000000000000000000                          0000000000                                                                  000185
1022675075200016300000090239700045004                         000000000000024137980000000000000000000000000902090512000080001200000000000002413798160512000000133705523704154  000000000000000000000000000000000000000000000000000000000000000000000000000000000000000000000000000000000000000000000                          0000000000                                                                  000186
1022675075200016300000090239700045004                         000000000000024138010000000000000000000000000902090512000080001300000000000002413801160512000000025823423704154  000000000000000000000000000000000000000000000000000000000000000000000000000000000000000000000000000000000000000000000                          0000000000                                                                  000187
1022675075200016300000090239700045004                         000000000000024138360000000000000000000000000902090512000080001400000000000002413836160512000000267247423704154  000000000000000000000000000000000000000000000000000000000000000000000000000000000000000000000000000000000000000000000                          0000000000                                                                  000188
1022675075200016300000090239700045004                         000000000000024138520000000000000000000000000902090512000080001500000000000002413852160512000000040107523704154  000000000000000000000000000000000000000000000000000000000000000000000000000000000000000000000000000000000000000000000                          0000000000                                                                  000189
1022675075200016300000090239700045004                         000000000000024138790000000000000000000000000902090512000080001600000000000002413879160512000000573318723704154  000000000000000000000000000000000000000000000000000000000000000000000000000000000000000000000000000000000000000000000                          0000000000                                                                  000190
1022675075200016300000090239700045004                         000000000000024139090000000000000000000000000902090512000080001700000000000002413909160512000000005265523704154  000000000000000000000000000000000000000000000000000000000000000000000000000000000000000000000000000000000000000000000                          0000000000                                                                  000191
1022675075200016300000090239700045004                         000000000000024139330000000000000000000000000902090512000080001800000000000002413933160512000000046649823704154  000000000000000000000000000000000000000000000000000000000000000000000000000000000000000000000000000000000000000000000                          0000000000                                                                  000192
1022675075200016300000090239700045004                         000000000000024139680000000000000000000000000902090512000080001900000000000002413968160512000000006541523704154  000000000000000000000000000000000000000000000000000000000000000000000000000000000000000000000000000000000000000000000                          0000000000                                                                  000193
1022675075200016300000090239700045004                         000000000000024139840000000000000000000000000902090512000080002000000000000002413984160512000000104660423704154  000000000000000000000000000000000000000000000000000000000000000000000000000000000000000000000000000000000000000000000                          0000000000                                                                  000194
1022675075200016300000090239700045004                         000000000000024140260000000000000000000000000902090512000080002100000000000002414026160512000000129382923704154  000000000000000000000000000000000000000000000000000000000000000000000000000000000000000000000000000000000000000000000                          0000000000                                                                  000195
1022675075200016300000090239700045004                         000000000000024140690000000000000000000000000902090512000080002200000000000002414069160512000000012989823704154  000000000000000000000000000000000000000000000000000000000000000000000000000000000000000000000000000000000000000000000                          0000000000                                                                  000196
1022675075200016300000090239700045004                         000000000000024140770000000000000000000000000902090512000080002300000000000002414077160512000000000601923704154  000000000000000000000000000000000000000000000000000000000000000000000000000000000000000000000000000000000000000000000                          0000000000                                                                  000197
1022675075200016300000090239700045004                         000000000000024140850000000000000000000000000902090512000080002400000000000002414085160512000000000611623704154  000000000000000000000000000000000000000000000000000000000000000000000000000000000000000000000000000000000000000000000                          0000000000                                                                  000198
1022675075200016300000090239700045004                         000000000000024140930000000000000000000000000902090512000080002500000000000002414093160512000000000994223704154  000000000000000000000000000000000000000000000000000000000000000000000000000000000000000000000000000000000000000000000                          0000000000                                                                  000199
1022675075200016300000090239700045004                         000000000000024141070000000000000000000000000902090512000080002600000000000002414107160512000000001113923704154  000000000000000000000000000000000000000000000000000000000000000000000000000000000000000000000000000000000000000000000                          0000000000                                                                  000200
1022675075200016300000090239700045004                         000000000000024141150000000000000000000000000902090512000080002700000000000002414115160512000000001131923704154  000000000000000000000000000000000000000000000000000000000000000000000000000000000000000000000000000000000000000000000                          0000000000                                                                  000201
1022675075200016300000090239700045004                         000000000000024141230000000000000000000000000902090512000080002800000000000002414123160512000000001244523704154  000000000000000000000000000000000000000000000000000000000000000000000000000000000000000000000000000000000000000000000                          0000000000                                                                  000202
1022675075200016300000090239700045004                         000000000000024141310000000000000000000000000902090512000080002900000000000002414131160512000000001414523704154  000000000000000000000000000000000000000000000000000000000000000000000000000000000000000000000000000000000000000000000                          0000000000                                                                  000203
1022675075200016300000090239700045004                         0000000000000241414P000000000000000000000000090209051200008000300000000000000241414P160512000000001419523704154  000000000000000000000000000000000000000000000000000000000000000000000000000000000000000000000000000000000000000000000                          0000000000                                                                  000204
1022675075200016300000090239700045004                         000000000000024141580000000000000000000000000902090512000080003100000000000002414158160512000000001445523704154  000000000000000000000000000000000000000000000000000000000000000000000000000000000000000000000000000000000000000000000                          0000000000                                                                  000205
1022675075200016300000090239700045004                         000000000000024141660000000000000000000000000902090512000080003200000000000002414166160512000000001487623704154  000000000000000000000000000000000000000000000000000000000000000000000000000000000000000000000000000000000000000000000                          0000000000                                                                  000206
1022675075200016300000090239700045004                         000000000000024141740000000000000000000000000902090512000080003300000000000002414174160512000000001568523704154  000000000000000000000000000000000000000000000000000000000000000000000000000000000000000000000000000000000000000000000                          0000000000                                                                  000207
1022675075200016300000090239700045004                         000000000000024141820000000000000000000000000902090512000080003400000000000002414182160512000000001568523704154  000000000000000000000000000000000000000000000000000000000000000000000000000000000000000000000000000000000000000000000                          0000000000                                                                  000208
1022675075200016300000090239700045004                         000000000000024141900000000000000000000000000902090512000080003500000000000002414190160512000000001644623704154  000000000000000000000000000000000000000000000000000000000000000000000000000000000000000000000000000000000000000000000                          0000000000                                                                  000209
1022675075200016300000090239700045004                         000000000000024142040000000000000000000000000902090512000080003600000000000002414204160512000000001738123704154  000000000000000000000000000000000000000000000000000000000000000000000000000000000000000000000000000000000000000000000                          0000000000                                                                  000210
1022675075200016300000090239700045004                         000000000000024142120000000000000000000000000902090512000080003700000000000002414212160512000000002270223704154  000000000000000000000000000000000000000000000000000000000000000000000000000000000000000000000000000000000000000000000                          0000000000                                                                  000211
1022675075200016300000090239700045004                         000000000000024142200000000000000000000000000902090512000080003800000000000002414220160512000000002550223704154  000000000000000000000000000000000000000000000000000000000000000000000000000000000000000000000000000000000000000000000                          0000000000                                                                  000212
1022675075200016300000090239700045004                         000000000000024142390000000000000000000000000902090512000080003900000000000002414239160512000000002851823704154  000000000000000000000000000000000000000000000000000000000000000000000000000000000000000000000000000000000000000000000                          0000000000                                                                  000213
1022675075200016300000090239700045004                         000000000000024142470000000000000000000000000902090512000080004000000000000002414247160512000000002922723704154  000000000000000000000000000000000000000000000000000000000000000000000000000000000000000000000000000000000000000000000                          0000000000                                                                  000214
1022675075200016300000090239700045004                         000000000000024142550000000000000000000000000902090512000080004100000000000002414255160512000000002981323704154  000000000000000000000000000000000000000000000000000000000000000000000000000000000000000000000000000000000000000000000                          0000000000                                                                  000215
1022675075200016300000090239700045004                         000000000000024142630000000000000000000000000902090512000080004200000000000002414263160512000000002985323704154  000000000000000000000000000000000000000000000000000000000000000000000000000000000000000000000000000000000000000000000                          0000000000                                                                  000216
1022675075200016300000090239700045004                         000000000000024142710000000000000000000000000902090512000080004300000000000002414271160512000000003000723704154  000000000000000000000000000000000000000000000000000000000000000000000000000000000000000000000000000000000000000000000                          0000000000                                                                  000217
1022675075200016300000090239700045004                         0000000000000241428P000000000000000000000000090209051200008000440000000000000241428P160512000000003019123704154  000000000000000000000000000000000000000000000000000000000000000000000000000000000000000000000000000000000000000000000                          0000000000                                                                  000218
1022675075200016300000090239700045004                         000000000000024142980000000000000000000000000902090512000080004500000000000002414298160512000000003070323704154  000000000000000000000000000000000000000000000000000000000000000000000000000000000000000000000000000000000000000000000                          0000000000                                                                  000219
1022675075200016300000090239700045004                         000000000000024143010000000000000000000000000902090512000080004600000000000002414301160512000000003111923704154  000000000000000000000000000000000000000000000000000000000000000000000000000000000000000000000000000000000000000000000                          0000000000                                                                  000220
1022675075200016300000090239700045004                         0000000000000241431P000000000000000000000000090209051200008000470000000000000241431P160512000000003127523704154  000000000000000000000000000000000000000000000000000000000000000000000000000000000000000000000000000000000000000000000                          0000000000                                                                  000221
1022675075200016300000090239700045004                         000000000000024143280000000000000000000000000902090512000080004800000000000002414328160512000000003270223704154  000000000000000000000000000000000000000000000000000000000000000000000000000000000000000000000000000000000000000000000                          0000000000                                                                  000222
1022675075200016300000090239700045004                         000000000000024143360000000000000000000000000902090512000080004900000000000002414336160512000000003350623704154  000000000000000000000000000000000000000000000000000000000000000000000000000000000000000000000000000000000000000000000                          0000000000                                                                  000223
1022675075200016300000090239700045004                         000000000000024143440000000000000000000000000902090512000080005000000000000002414344160512000000003360223704154  000000000000000000000000000000000000000000000000000000000000000000000000000000000000000000000000000000000000000000000                          0000000000                                                                  000224
1022675075200016300000090239700045004                         000000000000024143520000000000000000000000000902090512000080005100000000000002414352160512000000003643123704154  000000000000000000000000000000000000000000000000000000000000000000000000000000000000000000000000000000000000000000000                          0000000000                                                                  000225
1022675075200016300000090239700045004                         000000000000024143600000000000000000000000000902090512000080005200000000000002414360160512000000003839423704154  000000000000000000000000000000000000000000000000000000000000000000000000000000000000000000000000000000000000000000000                          0000000000                                                                  000226
1022675075200016300000090239700045004                         000000000000024143790000000000000000000000000902090512000080005300000000000002414379160512000000003881623704154  000000000000000000000000000000000000000000000000000000000000000000000000000000000000000000000000000000000000000000000                          0000000000                                                                  000227
1022675075200016300000090239700045004                         000000000000024143870000000000000000000000000902090512000080005400000000000002414387160512000000003946023704154  000000000000000000000000000000000000000000000000000000000000000000000000000000000000000000000000000000000000000000000                          0000000000                                                                  000228
1022675075200016300000090239700045004                         000000000000024143950000000000000000000000000902090512000080005500000000000002414395160512000000003951723704154  000000000000000000000000000000000000000000000000000000000000000000000000000000000000000000000000000000000000000000000                          0000000000                                                                  000229
1022675075200016300000090239700045004                         000000000000024144090000000000000000000000000902090512000080005600000000000002414409160512000000004108823704154  000000000000000000000000000000000000000000000000000000000000000000000000000000000000000000000000000000000000000000000                          0000000000                                                                  000230
1022675075200016300000090239700045004                         000000000000024144170000000000000000000000000902090512000080005700000000000002414417160512000000004127023704154  000000000000000000000000000000000000000000000000000000000000000000000000000000000000000000000000000000000000000000000                          0000000000                                                                  000231
1022675075200016300000090239700045004                         000000000000024144250000000000000000000000000902090512000080005800000000000002414425160512000000004252823704154  000000000000000000000000000000000000000000000000000000000000000000000000000000000000000000000000000000000000000000000                          0000000000                                                                  000232
1022675075200016300000090239700045004                         000000000000024144330000000000000000000000000902090512000080005900000000000002414433160512000000004389223704154  000000000000000000000000000000000000000000000000000000000000000000000000000000000000000000000000000000000000000000000                          0000000000                                                                  000233
1022675075200016300000090239700045004                         000000000000024144410000000000000000000000000902090512000080006000000000000002414441160512000000004392023704154  000000000000000000000000000000000000000000000000000000000000000000000000000000000000000000000000000000000000000000000                          0000000000                                                                  000234
1022675075200016300000090239700045004                         0000000000000241445P000000000000000000000000090209051200008000610000000000000241445P160512000000004401023704154  000000000000000000000000000000000000000000000000000000000000000000000000000000000000000000000000000000000000000000000                          0000000000                                                                  000235
1022675075200016300000090239700045004                         000000000000024144680000000000000000000000000902090512000080006200000000000002414468160512000000004404023704154  000000000000000000000000000000000000000000000000000000000000000000000000000000000000000000000000000000000000000000000                          0000000000                                                                  000236
1022675075200016300000090239700045004                         000000000000024144760000000000000000000000000902090512000080006300000000000002414476160512000000004410123704154  000000000000000000000000000000000000000000000000000000000000000000000000000000000000000000000000000000000000000000000                          0000000000                                                                  000237
1022675075200016300000090239700045004                         000000000000024144840000000000000000000000000902090512000080006400000000000002414484160512000000004413523704154  000000000000000000000000000000000000000000000000000000000000000000000000000000000000000000000000000000000000000000000                          0000000000                                                                  000238
1022675075200016300000090239700045004                         000000000000024144920000000000000000000000000902090512000080006500000000000002414492160512000000004461623704154  000000000000000000000000000000000000000000000000000000000000000000000000000000000000000000000000000000000000000000000                          0000000000                                                                  000239
1022675075200016300000090239700045004                         000000000000024145060000000000000000000000000902090512000080006600000000000002414506160512000000004601023704154  000000000000000000000000000000000000000000000000000000000000000000000000000000000000000000000000000000000000000000000                          0000000000                                                                  000240
1022675075200016300000090239700045004                         000000000000024145140000000000000000000000000902090512000080006700000000000002414514160512000000004656023704154  000000000000000000000000000000000000000000000000000000000000000000000000000000000000000000000000000000000000000000000                          0000000000                                                                  000241
1022675075200016300000090239700045004                         000000000000024145220000000000000000000000000902090512000080006800000000000002414522160512000000004876023704154  000000000000000000000000000000000000000000000000000000000000000000000000000000000000000000000000000000000000000000000                          0000000000                                                                  000242
1022675075200016300000090239700045004                         000000000000024145300000000000000000000000000902090512000080006900000000000002414530160512000000004989723704154  000000000000000000000000000000000000000000000000000000000000000000000000000000000000000000000000000000000000000000000                          0000000000                                                                  000243
1022675075200016300000090239700045004                         000000000000024145490000000000000000000000000902090512000080007000000000000002414549160512000000005395423704154  000000000000000000000000000000000000000000000000000000000000000000000000000000000000000000000000000000000000000000000                          0000000000                                                                  000244
1022675075200016300000090239700045004                         000000000000024145570000000000000000000000000902090512000080007100000000000002414557160512000000005421023704154  000000000000000000000000000000000000000000000000000000000000000000000000000000000000000000000000000000000000000000000                          0000000000                                                                  000245
1022675075200016300000090239700045004                         000000000000024145650000000000000000000000000902090512000080007200000000000002414565160512000000005816923704154  000000000000000000000000000000000000000000000000000000000000000000000000000000000000000000000000000000000000000000000                          0000000000                                                                  000246
1022675075200016300000090239700045004                         000000000000024145730000000000000000000000000902090512000080007300000000000002414573160512000000006607623704154  000000000000000000000000000000000000000000000000000000000000000000000000000000000000000000000000000000000000000000000                          0000000000                                                                  000247
1022675075200016300000090239700045004                         000000000000024145810000000000000000000000000902090512000080007400000000000002414581160512000000006723423704154  000000000000000000000000000000000000000000000000000000000000000000000000000000000000000000000000000000000000000000000                          0000000000                                                                  000248
1022675075200016300000090239700045004                         0000000000000241459P000000000000000000000000090209051200008000750000000000000241459P160512000000006783023704154  000000000000000000000000000000000000000000000000000000000000000000000000000000000000000000000000000000000000000000000                          0000000000                                                                  000249
