0                                           18052012         999999                      1026750752SERASA-CONCENTRE-PROTESTOE0063321599000000ADRIANA E RONI                                                        5.0      Dprotesto@cartoriomoromizato.com.br                                                                                                                                                                                                                                                                                                                                                  0000001
1PITOPMJ                                                        DARUMA TELECOMUNICACOES E INFORMATICA S/                                                                                                                                1      1   DMI197           28112011J1                           WMR SERVICOS EM TEC DA INFORMATICA LTDA         010568975000174          706 SUL ALAMEDA 15, SN                       77022408PALMAS              TO99000000000177020098                    1                                                                                                           0000002
1PITOPMJ                                                        SERRANA CENTRO AUTOMOTIVO LTDA ME                                                                                                                                       1      2   DMI99.04         14032012F2                           MARCIO AUGUSTO JULIATI                          387771341000008          106 SUL AL 20 LT 24                          77020086PALMAS              TO99000000000277020098                    1                                                                                                           0000003
1PITOPMJ                                                        AREZZO INDUSTRIA E COMERCIO SA                                                                                                                                          1      3   DMI103.56        26032012J1                           LDM COMERCIO DE CALCADOS E ACESSORIOS LT        007272618000150          Q 104 SUL  ACSEII , AV. L0 01 LT.02  SL.     77020020PALMAS              TO99000000000377020098                    1                                                                                                           0000004
1PITOPMJ                                                        AREZZO INDUSTRIA E COMERCIO SA                                                                                                                                          1      4   DMI172.57        05032012J1                           GOC COMERCIO DE CALCADOS LTDA                   011502652000140          Q 104 SUL - AVENIDA LO 1 LT.2 SL.01,0        77020020PALMAS              TO99000000000477020098                    1                                                                                                           0000005
1PITOPMJ                                                        AREZZO INDUSTRIA E COMERCIO SA                                                                                                                                          1      5   DMI224.66        09042012J1                           LDM COMERCIO DE CALCADOS E ACESSORIOS LT        007272618000150          Q 104 SUL  ACSEII , AV. L0 01 LT.02  SL.     77020020PALMAS              TO99000000000577020098                    1                                                                                                           0000006
1PITOPMJ                                                        CIRCULO S/A                                                                                                                                                             1      6   DMI230.07        23022012J1                           CIP VILLAS BOAS ME                              004993830000118          AV TOCANTINS - QD 06 LT 10 SL 02, S/N        77270000TAQUARALTO          TO99000000000677020098                    1                                                                                                           0000007
1PITOPMJ                                                        AREZZO INDUSTRIA E COMERCIO SA                                                                                                                                          1      7   DMI259.71        26032012J1                           GOC COMERCIO DE CALCADOS LTDA                   011502652000140          Q 104 SUL - AVENIDA LO 1 LT.2 SL.01,0        77020020PALMAS              TO99000000000777020098                    1                                                                                                           0000008
1PITOPMJ                                                        CAMBUCI DISTRIBUIDORA DE AUTOS PECAS LTD                                                                                                                                1      8   DMI271.17        02042012J1                           PALMAS AUTO PARTS COM. DE PECAS                 010930502000175          104 NORTE RUA NE 07 LT.36 SALA 4, 4          77006026PALMAS              TO99000000000877020098                    1                                                                                                           0000009
1PITOPMJ                                                        CIRCULO S/A                                                                                                                                                             1      9   DMI294.56        15022012J1                           CIP VILLAS BOAS ME                              004993830000118          AV TOCANTINS - QD 06 LT 10 SL 02, S/N        77270000TAQUARALTO          TO99000000000977020098                    1                                                                                                           0000010
1PITOPMJ                                                        CAMBUCI DISTRIBUIDORA DE AUTOS PECAS LTD                                                                                                                                1      10  DMI300.79        20032012J1                           PALMAS AUTO PARTS COM. DE PECAS                 010930502000175          104 NORTE RUA NE 07 LT.36 SALA 4, 4          77006026PALMAS              TO99000000001077020098                    1                                                                                                           0000011
1PITOPMJ                                                        CAMBUCI DISTRIBUIDORA DE AUTOS PECAS LTD                                                                                                                                1      11  DMI326.95        29032012J1                           PALMAS AUTO PARTS COM. DE PECAS                 010930502000175          104 NORTE RUA NE 07 LT.36 SALA 4, 4          77006026PALMAS              TO99000000001177020098                    1                                                                                                           0000012
1PITOPMJ                                                        RACA DISTRIBUIDORA DE AUTO PECAS LTDA                                                                                                                                   1      12  DMI348           08032012J1                           EDILSON APARECIDO CASTALDO - ME                 033572801000180          AV PALMAS Q4 LT12 SL2                        77270000TAQUARALTO          TO99000000001277020098                    1                                                                                                           0000013
1PITOPMJ                                                        RACA DISTRIBUIDORA DE AUTO PECAS LTDA                                                                                                                                   1      13  DMI369           10022012J1                           EDILSON APARECIDO CASTALDO - ME                 033572801000180          AV PALMAS Q4 LT12 SL2                        77270000TAQUARALTO          TO99000000001377020098                    1                                                                                                           0000014
1PITOPMJ                                                        AREZZO INDUSTRIA E COMERCIO SA                                                                                                                                          1      14  DMI391.46        26032012J1                           KG COMERCIO DE CALCADOS E ACESSORIOS LTD        009540800000170          Q 104 SUL - AVENIDA LO 1 LT.2 SL.01,0        77020020PALMAS              TO99000000001477020098                    1                                                                                                           0000015
1PITOPMJ                                                        POLITORNO MOVEIS LTDA                                                                                                                                                   1      15  DMI449           14022012J1                           AROLDO DELMIRO                                  010956030000120          AV NS - 03 - 303 NORTE AL 15 LT 37, S/N      77001236PALMAS              TO99000000001577020098                    1                                                                                                           0000016
1PITOPMJ                                                        AREZZO INDUSTRIA E COMERCIO SA                                                                                                                                          1      16  DMI512.95        26032012J1                           LDM COMERCIO DE CALCADOS E ACESSORIOS LT        007272618000150          Q 104 SUL  ACSEII , AV. L0 01 LT.02  SL.     77020020PALMAS              TO99000000001677020098                    1                                                                                                           0000017
1PITOPMJ                                                        AREZZO INDUSTRIA E COMERCIO SA                                                                                                                                          1      17  DMI530.06        05032012J1                           LDM COMERCIO DE CALCADOS E ACESSORIOS LT        007272618000150          Q 104 SUL  ACSEII , AV. L0 01 LT.02  SL.     77020020PALMAS              TO99000000001777020098                    1                                                                                                           0000018
1PITOPMJ                                                        DOHLER SA                                                                                                                                                               1      18  DMI539.47        30032012J1                           LILI COMERCIO LTDA. - ME.                       011469915000167          QUADRA 307 NORTE ALAMEDA 7  LT 19 AV NS      77001402PALMAS              TO99000000001877020098                    1                                                                                                           0000019
1PITOPMJ                                                        ROBERT BOSCH LTDA                                                                                                                                                       1      19  DMI599.04        21022012J1                           SANTA MARTA COM DE MATS DE CONST LT             007886434000180          1203 SUL AV LO 27 LT29 SN                    77019421PALMAS              TO99000000001977020098                    1                                                                                                           0000020
1PITOPMJ                                                        METALURGICA PACETTA S A                                                                                                                                                 1      20  DMI631.86        16042012J1                           G V FORMIGA FERRAGENS                           009557473000169          TOCANTINS, LT 7                              77064580PALMAS              TO99000000002077020098                    1                                                                                                           0000021
1PITOPMJ                                                        R G METALURGICA LTDA                                                                                                                                                    1      21  DMI676.23        10042012J1                           J F FRANCO                                      012212313000192          RUA 08, QD 06 LT. 16                         77060182PALMAS              TO99000000002177020098                    1                                                                                                           0000022
1PITOPMJ                                                        MONTECARLO DISTRIBUIDORA DE AUTO PECAS L                                                                                                                                1      22  DMI720.6         12042012J1                           RAMALHO & SILVA LTDA                            009532848000136          QD 104 SUL R SE 1 SN LT 28                   77020014PALMAS              TO99000000002277020098                    1                                                                                                           0000023
1PITOPMJ                                                        TUPA DIST DE LATARIAS E ACESS LTDA                                                                                                                                      1      23  DMI803           23032012J1                           HJF COM.DE PECAS AUTOM.LTDA-ME                  005704148000120          AV.TEOT.SEGURADO 701-SUL C-01/L-14 ACSU      77017002PALMAS              TO99000000002377020098                    1                                                                                                           0000024
1PITOPMJ                                                        METALGAMICA PROD GRAFICOS                                                                                                                                               1      24  DMI909.39        05042012J1                           LUIS CARLOS ALVES DE OLIVEIRA                   003444658000180          Q ACNE 11 CONJUNTO 01 LOTE 26 AV LO 0        77006022PALMAS              TO99000000002477020098                    1                                                                                                           0000025
1PITOPMJ                                                        SULTANTEX INDUSTRIA E COMERCIO LTDA                                                                                                                                     1      25  DMI937.01        10102011J1                           COML VAREJISTA DE TEC.TAQUARALTO LTDA           001718083000111          AV.TOCANTINS S/N QUADRA 42 LOTE 06           77270000TAQUARALTO          TO99000000002577020098                    1                                                                                                           0000026
1PITOPMJ                                                        AREZZO INDUSTRIA E COMERCIO SA                                                                                                                                          1      26  DMI944.58        26032012J1                           KG COMERCIO DE CALCADOS E ACESSORIOS LTD        009540800000170          Q 104 SUL - AVENIDA LO 1 LT.2 SL.01,0        77020020PALMAS              TO99000000002677020098                    1                                                                                                           0000027
1PITOPMJ                                                        LUCATTI ARTES E DECORACOES LTDA                                                                                                                                         1      27  DMI968.04        11042012J1                           TIBA SUPERMERCADOS LTDA                         089228217000167          LOC ACSE I CONJUNTO I LOTE 12, S/N - SAL     77016524PALMAS              TO99000000002777020098                    1                                                                                                           0000028
1PITOPMJ                                                        AREZZO INDUSTRIA E COMERCIO SA                                                                                                                                          1      28  DMI999.75        26032012J1                           GOC COMERCIO DE CALCADOS LTDA                   011502652000140          Q 104 SUL - AVENIDA LO 1 LT.2 SL.01,0        77020020PALMAS              TO99000000002877020098                    1                                                                                                           0000029
1PITOPMJ                                                        SANDRINI IND E COM DE PLASTICOS LTDA EPP                                                                                                                                1      29  DMI1019          27032012J1                           AGUA MAIS DISTRIBUIDORA DE BEBIDAS LTDA         008674943000101          QUADRA 104 NORTE AVENIDA LO 2                77006022PALMAS              TO99000000002977020098                    1                                                                                                           0000030
1PITOPMJ                                                        DRC COMERCIAL TECNICA LTDA                                                                                                                                              1      30  DMI1100          10042012J1                           DISTRIBUIDORA CUMMINS CENTRO OESTE LTDA         001475599000506          912 SUL ALAMEDA 3 ASR SE 95 QI D, PLANO      77023442PALMAS              TO99000000003077020098                    1                                                                                                           0000031
1PITOPMJ                                                        AREZZO INDUSTRIA E COMERCIO SA                                                                                                                                          1      31  DMI1151.38       05032012J1                           GOC COMERCIO DE CALCADOS LTDA                   011502652000140          Q 104 SUL - AVENIDA LO 1 LT.2 SL.01,0        77020020PALMAS              TO99000000003177020098                    1                                                                                                           0000032
1PITOPMJ                                                        AREZZO INDUSTRIA E COMERCIO SA                                                                                                                                          1      32  DMI1253.6        26032012J1                           LDM COMERCIO DE CALCADOS E ACESSORIOS LT        007272618000150          Q 104 SUL  ACSEII , AV. L0 01 LT.02  SL.     77020020PALMAS              TO99000000003277020098                    1                                                                                                           0000033
1PITOPMJ                                                        UBERABAO INDUSTRIA  COMERCIO C                                                                                                                                          1      33  DMI1254.83       27012012J1                           MARIA LUIZA GOMES DE AGUIAR                     014444119000168          QUADRA 104 SUL - LT 05 SL 3/4 - AVENIDA      77020020PALMAS              TO99000000003377020098                    1                                                                                                           0000034
1PITOPMJ                                                        CALCADOS TABITA LTDA                                                                                                                                                    1      34  DMI1255          17022012J1                           JP COMERCIO DE ARTIGOS DE COURO LTDA.           010606596000121          104 SUL RUA SE 1,13                          77020014PALMAS              TO99000000003477020098                    1                                                                                                           0000035
1PITOPMJ                                                        AREZZO INDUSTRIA E COMERCIO SA                                                                                                                                          1      35  DMI1459.27       05032012J1                           LDM COMERCIO DE CALCADOS E ACESSORIOS LT        007272618000150          Q 104 SUL  ACSEII , AV. L0 01 LT.02  SL.     77020020PALMAS              TO99000000003577020098                    1                                                                                                           0000036
1PITOPMJ                                                        SAINT GERMAIN-R.A.FERNANDES MA                                                                                                                                          1      36  DMI1711.96       13032012J1                           VIANA IMP. E DISTR DE PROD. LTDA                010690715000177          QD. 104 SUL RUA DE P. SE 9 S/N LT 24         77020024PALMAS              TO99000000003677020098                    1                                                                                                           0000037
1PITOPMJ                                                        V.B. IND DE CALCADOS LTDA                                                                                                                                               1      37  DMI1733.94       01032012J1                           PEREIRA & BONFIM LTDA                           001328092000104          TOCANTINS QD 33 LT 09 SL 02 S/N              77064580PALMAS              TO99000000003777020098                    1                                                                                                           0000038
1PITOPMJ                                                        FERRAUTO PECAS E ACESSORIOS LTDA ME                                                                                                                                     1      38  DMI2625          28022012F2                           DANILO DA SILVA RAMOS                           019154071000001          212 NORTE AL 06 LOTE 36 - 212 NORTE          77006312PALMAS              TO99000000003877020098                    1                                                                                                           0000039
1PITOPMJ                                                        AREZZO INDUSTRIA E COMERCIO SA                                                                                                                                          1      39  DMI2674.23       05032012J1                           KG COMERCIO DE CALCADOS E ACESSORIOS LTD        009540800000170          Q 104 SUL - AVENIDA LO 1 LT.2 SL.01,0        77020020PALMAS              TO99000000003977020098                    1                                                                                                           0000040
1PITOPMJ                                                        UNIAO QUIMICA FARMACEUTICA NACIONAL S/A                                                                                                                                 1      40  DMI4042.05       12042012J1                           PROFARM COM MED MAT HOSP LTDA                   000545222000190          LOC ASV SE SN, LT 05                         77016524PALMAS              TO99000000004077020098                    1                                                                                                           0000041
1PITOPMJ                                                        KONIMAGEM COMERCIAL LTDA                                                                                                                                                1      41  DMI4448          26032012J1                           PRO SAUDE - ASS. BENEFICENTE DE ASSISTEN        024232886011525          R. TEOTONIO SEGURADO QD 401 SUL CONJ.01      77015550PALMAS              TO99000000004177020098                    1                                                                                                           0000042
1PITOPMJ                                                        VOGES METALURGICA LTDA                                                                                                                                                  1      42  DMI5511.17       05032012J1                           FABIANO ROBERTO MATOS DO VALE FILHO             000085446000166          ACNE 1 CONJ 2 LOTE 20 SALA 1/2 S/N           77006016PALMAS              TO99000000004277020098                    1                                                                                                           0000043
1PITOPMJ                                                        MACROMED COM DE MAT MED HOSP LTDA                                                                                                                                       1      43  DMI6020          04042012J1                           PRO-SAUDE ABASH  ESCRITORIO RE                  024232886010634          QD 104 NORTE R.NE 01 N 29,ED.VIENA           77006016PALMAS              TO99000000004377020098                    1                                                                                                           0000044
1PITOPMJ                                                        CIRURGICA FERNANDES LTDA                                                                                                                                                1      44  DMI10117.37      21032012J1                           PRO SAUDE - ASSOC BENEF DE ASSIST SOC           024232886011525          401 SUL AV JOAQUIM TEOTONIO SEGURADO, SN     77015550PALMAS              TO99000000004477020098                    1                                                                                                           0000045
1PITOPMJ                                                        CIRURGICA FERNANDES LTDA                                                                                                                                                1      45  DMI10489.44      30032012J1                           PRO SAUDE - ASSOC BENEF DE ASSIST SOC           024232886011525          401 SUL AV JOAQUIM TEOTONIO SEGURADO, SN     77015550PALMAS              TO99000000004577020098                    1                                                                                                           0000046
9                                                                                                                                                                                                                                                                                                                                                                                                                                                                                                                                                                                                                0000047
