0341ITAU UNIBANCO SA                        18052012SDTBFOCRT00102600420042004200001615000431721000                                                                                                                                                                                                                                                                                                                                                                                                                                                                                                                 0001
13410867295826/1615TUPY COMERCIO DE GLP LTDA EPP                TUPY COMERCIO DE GLP LTDA EPP                11132913000188AV J SN                                      77062026PALMAS              TO157-74711240-2 DMIN.F 22216  13042012050520120010000000000004800000000000048PALMAS              MN1JOSE ANTONIO MENDES BEZERRA RO               00200027742385287           603 N AL 10 QI 17 LT 13                      77001866PALMAS              TO0000000000460180520120000000000 1805201200CENTRO              00000000000000000000000000000000000000000000000000          0000000000                   0002
13416877073947/1615JOAO BATISTA DE SOUZA ME                     JOAO BATISTA DE SOUZA ME                     02932953000113000 604 SUL ALAMEDA 2 S/N                    77022044PALMAS              TO157-74929024-5 DMI1043       17042012070520120010000000000986700000000009867PALMAS              MN1FORTE MIL COM. PROD. AUTOMOTIV               00105860011000165           812 SUL AL 07 LTS 03/05                      77016524PALMAS              TO0000000000470180520120000000000 1805201200CENTRO              00000000000000000000000000000000000000000000000000          0000000000                   0003
13414373800004/1615PODIUM COM DE PROD AUT LTDA                  PODIUM COM DE PROD AUT LTDA                  07347634000164AVENIDA CASTELO BRANCO 1321                  74530010GOIANIA             GO109-00124711-1 DMI19489/1    03042012030520120010000000000010500000000000105PALMAS              MN1INDUSTRIA NACIONAL DE ASFALTO                00103354176000130           QUADRA 1112 SUL ALAMEDA 8-LT 16-A            77024166PALMAS              TO0000000000480180520120000000000 1805201200P.D. SUL            00000000000000000000000000000000000000000000000000          0000000000                   0004
13416877085222/1615ESCOLA ATITUDE LTDA                          ESCOLA ATITUDE LTDA                          14393704000186RUA 34 QD 108 LT 26 SN                       77062050PALMAS              TO157-72144142-1 DMI17/04      26032012100420120010000000000014600000000000126PALMAS              MN1ELIANE SOARES DOS SANTOS                     00200002771178362           AV: J QUADRA 157 LOTE 02                     77270000PALMAS              TO0000000000490180520120000000000 1805201200AURENY III          00000000000000000000000000000000000000000000000000          0000000000                   0005
13416214007020/1615INVIOLAVEL P T C M A E LTDA                  INVIOLAVEL P T C M A E LTDA                  09619308000194103 NORTE RUA NO 1 CONJ 02 LT  18            77001016PALMAS              TO109-20004722-4 DMI0000192254 21032012100420120010000000000126500000000001265PALMAS              MN1RESIDENCIA LUCIANO CARLOS FERR               00200028081471120           307 SUL RUA 5 LOTE 04 QI 10, 04              77020142PALMAS              TO0000000000500180520120000000000 1805201200SETOR SUL           00000000000000000000000000000000000000000000000000          0000000000                   0006
13416877085222/1615ESCOLA ATITUDE LTDA                          ESCOLA ATITUDE LTDA                          14393704000186RUA 34 QD 108 LT 26 SN                       77062050PALMAS              TO157-72460918-0 DMI92/04      28032012100420120010000000000014900000000000129PALMAS              MN1IRENE DE ABREU CALDEIRA                      00200062274279187           R: T 32 CONJ.33 LT 04                        77270000PALMAS              TO0000000000510180520120000000000 1805201200TAQUARI             00000000000000000000000000000000000000000000000000          0000000000                   0007
13416214064773/1615INVIOLAVEL P T C M A E LTDA                  INVIOLAVEL P T C M A E LTDA                  09619308000194103 NORTE RUA NO 1 CONJ 02 LT  18            77001016PALMAS              TO109-20002936-2 DMI0000190032 17112011100420120010000000000015000000000000150PALMAS              MN1JOAO RIBEIRO JUNIOR                          00200069161623172           303 SUL ALAMEDA 11 LOTE 12 QI 12, 12         77001016PALMAS              TO0000000000520180520120000000000 1805201200SUL                 00000000000000000000000000000000000000000000000000          0000000000                   0008
13411345005357/1615KAWA INDUSTRIA COMERCIO LTDA                 KAWA INDUSTRIA COMERCIO LTDA                 26030478000158R AFONSO GARCIA 505                          36090640JUIZ DE FORA        MG112-91093738-5 DMI000732     26032012050520120010000000001544500000000015445PALMAS              MN1LPH COMERCIO VAREJISTA DE ROUP               00103755776000100           AV.J.K, QUADRA 107 NORTE PLANO DIRETOR N     77001080PALMAS              TO0000000000530180520120000000000 1805201200SHOPPING CAP        00000000000000000000000000000000000000000000000000          0000000000                   0009
13416214007020/1615INVIOLAVEL P T C M A E LTDA                  INVIOLAVEL P T C M A E LTDA                  09619308000194103 NORTE RUA NO 1 CONJ 02 LT  18            77001016PALMAS              TO109-20004484-1 DMI0000191928 15022012100420120010000000000016500000000000165PALMAS              MN1PAULO RAMOS DO NASCIMENTO-LUMI               00200000519365852           106 SUL ALA. 10 LOTE 29, 29                  77020142PALMAS              TO0000000000540180520120000000000 1805201200SUL                 00000000000000000000000000000000000000000000000000          0000000000                   0010
13416877085222/1615ESCOLA ATITUDE LTDA                          ESCOLA ATITUDE LTDA                          14393704000186RUA 34 QD 108 LT 26 SN                       77062050PALMAS              TO157-72266720-6 DMI33/04      27032012100420120010000000000018900000000000169PALMAS              MN1MARIA DO CARMO FERREIRA MOURA                00200004827593132           R:32 QD 151 LT 26                            77270000PALMAS              TO0000000000550180520120000000000 1805201200AURENY 3            00000000000000000000000000000000000000000000000000          0000000000                   0011
13416877085222/1615ESCOLA ATITUDE LTDA                          ESCOLA ATITUDE LTDA                          14393704000186RUA 34 QD 108 LT 26 SN                       77062050PALMAS              TO157-72336511-5 DMI90/04      27032012100420120010000000000019000000000000170PALMAS              MN1EDNA MARIA ASSUNCAO PEREIRA                  00200035085355334           R: 24 QD.191 LT 21                           77270000PALMAS              TO0000000000560180520120000000000 1805201200AURENY 3            00000000000000000000000000000000000000000000000000          0000000000                   0012
13416214064773/1615INVIOLAVEL P T C M A E LTDA                  INVIOLAVEL P T C M A E LTDA                  09619308000194103 NORTE RUA NO 1 CONJ 02 LT  18            77001016PALMAS              TO109-20002973-5 DMI0000190070 17112011100420120010000000000017600000000000176PALMAS              MN1SANDRA CRISTINA GONDIN                       00200042501059115           205 SUL AL 08 LOTE 18, 18                    77001016PALMAS              TO0000000000570180520120000000000 1805201200SETOR SUL           00000000000000000000000000000000000000000000000000          0000000000                   0013
13416877085222/1615ESCOLA ATITUDE LTDA                          ESCOLA ATITUDE LTDA                          14393704000186RUA 34 QD 108 LT 26 SN                       77062050PALMAS              TO157-72148371-2 DMI23/04      26032012100420120010000000000205800000000001858PALMAS              MN1KEILA BETHANIA PEREIRA ALVES                 00200088332349168           RUA 38 QUADRA 79 LOTE 04                     77270000PALMAS              TO0000000000580180520120000000000 1805201200AURENY 3            00000000000000000000000000000000000000000000000000          0000000000                   0014
13416214064773/1615INVIOLAVEL P T C M A E LTDA                  INVIOLAVEL P T C M A E LTDA                  09619308000194103 NORTE RUA NO 1 CONJ 02 LT  18            77001016PALMAS              TO109-20002946-1 DMI0000190042 17112011100420120010000000000019500000000000195PALMAS              MN1MARIA DO CARMO BERTUOL - ME                  00133649203000162           104 SUL RUA SE 07, 01                        77001016PALMAS              TO0000000000590180520120000000000 1805201200CENTRO              00000000000000000000000000000000000000000000000000          0000000000                   0015
13414373800004/1615PODIUM COM DE PROD AUT LTDA                  PODIUM COM DE PROD AUT LTDA                  07347634000164AVENIDA CASTELO BRANCO 1321                  74530010GOIANIA             GO109-00124700-4 DMI19487/1    03042012030520120010000000000021500000000000215PALMAS              MN1INDUSTRIA NACIONAL DE ASFALTO                00103354176000130           QUADRA 1112 SUL ALAMEDA 8-LT 16-A            77024166PALMAS              TO0000000000600180520120000000000 1805201200P.D. SUL            00000000000000000000000000000000000000000000000000          0000000000                   0016
13416214064773/1615INVIOLAVEL P T C M A E LTDA                  INVIOLAVEL P T C M A E LTDA                  09619308000194103 NORTE RUA NO 1 CONJ 02 LT  18            77001016PALMAS              TO109-20003685-4 DMI0000190848 01122011100420120010000000000026300000000000263PALMAS              MN1CONDOMINIO BEETHOVEN                         00105749082000195           204 SUL ALAM. 10 LOTE 3, 3                   77020468PALMAS              TO0000000000610180520120000000000 1805201200SUL                 00000000000000000000000000000000000000000000000000          0000000000                   0017
13411248045260/1615BANCO INDUSTRIAL DO BRASIL SA                DESART IND IMP E EXP LTDA - RE               43583616000145AV. JUSCELINO KUBITSCHEK 1703                04543011SAO PAULO           SP112-81222331-4 DMI000011878C 24022012090520120010000000000401800000000004018PALMAS              MN1J.F. COMERCIO VAREJISTA DE BRI               00103069300000115           Q 404 NORTE ALAMEDA 25-A LOTE 02, S/N        77006436PALMAS              TO0000000000620180520120000000000 1805201200PLANO DIRETO        00000000000000000000000000000000000000000000000000          0000000000                   0018
13410126527506/1615C. SCHNEIDER - MOVEIS                        C. SCHNEIDER - MOVEIS                        07019174000145RUA PIQUIRI 147                              86600000ROLANDIA            PR109-00008271-4 DMI26477/6    26102011050520120010000000000043000000000000430PALMAS              MN1IGREJA APOSTOLICA MANANCIAL                  00110420908000108           701 SUL AV. TEOTONIO SEGURADO CONJUNTO 0     77017002PALMAS              TO0000000000630180520120000000000 1805201200PLANO DIRETO        00000000000000000000000000000000000000000000000000          0000000000                   0019
13410083491829/1615ARAMOVEIS IND REUN MOV EST LTD               ARAMOVEIS IND REUN MOV EST LTD               75341800000175AV MARACANA 4900                             86705280ARAPONGAS           PR112-69406830-8 DMI050577-3-3 19012012050520120010000000004501400000000045014PALMAS              MN1PREGAO BRASIL COM DE MOVEIS US               00107460031000174           604 SUL AV LO 15                             77022018PALMAS              TO0000000000640180520120000000000 1805201200PLANO DIRETO        00000000000000000000000000000000000000000000000000          0000000000                   0020
13411578223032/1615ESTILOTEX IND COM DE TEC LTDA                ESTILOTEX IND COM DE TEC LTDA                02026083000113R VER SERGIO LEOPOLDINO ALVES  190           13456166STA BARBARA DOESTE  SP191-50135248-5 DMI045473-01  15032012260420120010000000004546500000000045465PALMAS              MN1ISABEL SEGALA                                00101656558000192           AVENIDA TOCANTINS QD 38 LT 19 SALA 2         77064580PALMAS              TO0000000000650180520120000000000 1805201200                    00000000000000000000000000000000000000000000000000          0000000000                   0021
13414171019401/1615J CAMARA IRMAOS S/A                          J CAMARA IRMAOS S/A                          01536754000395R THOMAS EDSON 00000                         74835130GOIANIA             GO109-00016517-0 DMI003512201  19042012070520120010000000004674900000000046749PALMAS              MN1REZENDE EMPREENDIMENTOS IMOB L               00103565467000177           501 SUL AV TEOTONIO SEG CJ 01 LT 13 S/N      77016002PALMAS              TO0000000000660180520120000000000 1805201200CENTRO              00000000000000000000000000000000000000000000000000          0000000000                   0022
13410155897812/1615ZAPPA FRANCA I C LTDA ME                     ZAPPA FRANCA I C LTDA ME                     09298348000181RUA JERONIMO TEODORO DE SOUZA  3589          14405425FRANCA              SP112-59464227-7 DMI3172  2-2  09122011070520120010000000006048300000000060483PALMAS              MN1SAN REMO COMERCIO E CONFECCAO                00104781678000100           QUADRA 104 SUL AVENIDA LO, S/N               77020020PALMAS              TO0000000000670180520120000000000 1805201200PLANO DIRETO        00000000000000000000000000000000000000000000000000          0000000000                   0023
13417892062022/1615SUPRAMED INDUSTRIA C LTDA                    SUPRAMED INDUSTRIA C LTDA                    41906017000190R SAFIRA 577                                 30411127BELO HORIZONTE      MG156-12157834-4 DMI001318/A   16042012050520120010000000007665700000000076657PALMAS              MN1RAIMUNDO SANTANA BASTOS                      00200023264926172           106 SUL ALAMEDA 26, LOTE 30                  77020056PALMAS              TO0000000000680180520120000000000 1805201200PLANO DIRETOR S     00000000000000000000000000000000000000000000000000          0000000000                   0024
13411011387105/1615S S R B QUALITY C E LTDA                     S S R B QUALITY C E LTDA                     08189587000130RUA SANTA ANGELINA 631                       07053122GUARULHOS           SP112-91342413-4 DMI2148001    02042012070520120010000000011216500000000112165PALMAS              MN1PRO SAUDE ASSOC BENEF DE ASSIS               00124232886011444           AV TEOTONIO SEGURADO QSULCJLT S/N SL         77006016PALMAS              TO0000000000690180520120000000000 1805201200CENTRO              00000000000000000000000000000000000000000000000000          0000000000                   0025
13411145249064/1615EMESCO EMBALAGENS LTDA                       EMESCO EMBALAGENS LTDA                       09294433000171RUA BROOKLIN 129                             06419080BARUERI             SP112-90667755-7 DMI892-C      06032012050520120010000000011531100000000115311PALMAS              MN1A M M DE LIMA                                00107526459000172           Q 104 NORTE RUA NE 1 LOTE 35 SALA 04         77006016PALMAS              TO0000000000700180520120000000000 1805201200CENTRO              00000000000000000000000000000000000000000000000000          0000000000                   0026
13410264518762/1615PENTEL BR IMP EXP IND E COM LT               PENTEL BR IMP EXP IND E COM LT               61611141000135RUA DONA MARIA FIDELIS 130                   09950350DIADEMA             SP112-84645727-6 DMI0000050479 08032012070520120010000000014333600000000143336PALMAS              MN1DIPLOMATA PAPELARIA LTDA ME                  00108400901000182           AV TOCANTINS QD 37 LOTE 09 SALA 04           77064002PALMAS              TO0000000000710180520120000000000 1805201200TAQUARALTO          00000000000000000000000000000000000000000000000000          0000000000                   0027
13417649138653/1615SMK COMERCIO DE CONFEC LTDA                  SMK COMERCIO DE CONFEC LTDA                  12154256000132RUA PROFESSOR JOAO BRITO 85                  04535080SAO PAULO           SP112-94287372-3 DMI1457/A     17042012070520120010000000001585500000000015855PALMAS              MN1SENA E VIEIRA LTDA ME                        00111937186000126           QUADRA AV 107 NORTE AVENIDA JUSCELINO        77001080PALMA               TO0000000000720180520120000000000 1805201200PLANO DIRETO        00000000000000000000000000000000000000000000000000          0000000000                   0028
13411011387105/1615S S R B QUALITY C E LTDA                     S S R B QUALITY C E LTDA                     08189587000130RUA SANTA ANGELINA 631                       07053122GUARULHOS           SP112-91342416-7 DMI2150611    02042012070520120010000000000176400000000001764PALMAS              MN1PRO SAUDE ASSOC BENEF DE ASSIS               00124232886011525           TEOTONIO SEGURADOQ401SUL S/N CJ1LT1SL301     77006016PALMAS              TO0000000000730180520120000000000 1805201200CENTRO              00000000000000000000000000000000000000000000000000          0000000000                   0029
13410045399649/1615BOMBAS LEAO S A                              BOMBAS LEAO S A                              52940533000157VIA SEBASTIAO FIOREZE 400                    14730000MONTE AZUL PAULISTA SP112-92376101-2 DMI002266001  05042012070520120010000000021227300000000212273PALMAS              MN1HIDROBOMBAS ARAGUAIA LTDA                    00110935399000156           Q 212 NORTE ALAMEDA 06 QI-07, 24             77006312PALMAS              TO0000000000740180520120000000000 1805201200PLANO DIRETO        00000000000000000000000000000000000000000000000000          0000000000                   0030
13410279352678/1615CERAMICA BATISTELLA LTDA                     CERAMICA BATISTELLA LTDA                     51460566000137VIA TATUIBI 1000                             13484050LIMEIRA             SP112-70976367-9 DMI0010714902 19012012030520120010000000002205900000000022059PALMAS              MN1W M R FIGUEIREDO                             00108601900000104           305 SUL AVENIDA LO 5     S/N  LT 12 SL 1     77015438PALMAS              TO0000000000750180520120000000000 1805201200PLANO DIRETO        00000000000000000000000000000000000000000000000000          0000000000                   0031
13410132727561/1615ROVITEX IND COM DE MALHAS LTDA               ROVITEX IND COM DE MALHAS LTDA               79233672000105MARIA MARANGONI 391                          89115000LUIZ ALVES          SC109-00127825-3 DMIA120913603 24012012080520120010000000032139800000000321398PALMAS              MN1VIANA IMP E DISTRIBUI DE PR                  00110690715000177           QD 104 RUA SE 9, SN - ACSE II CONJ 2         77020024PALMAS              TO0000000000760180520120000000000 1805201200PLANO DIRETO        00000000000000000000000000000000000000000000000000          0000000000                   0032
13414387675426/1615MERITOR VEICULOS PESADOS LTDA                MERITOR VEICULOS PESADOS LTDA                09470932000172RUA E SN                                     74940440APARECIDA DE GOIANIAGO109-00000167-7 DMI000126-00  16042012030520120010000000000561600000000005616PALMAS              MN1MERIDIONAL ENGENHARIA LTDA                   00102043982000124           AV. TEOTONIO SEGURADO 501 SUL ED. AMAZON     77016002PALMAS              TO0000000000770180520120000000000 1805201200                    00000000000000000000000000000000000000000000000000          0000000000                   0033
13411011387105/1615S S R B QUALITY C E LTDA                     S S R B QUALITY C E LTDA                     08189587000130RUA SANTA ANGELINA 631                       07053122GUARULHOS           SP112-91342417-5 DMI2150641    02042012070520120010000000064050100000000640501PALMAS              MN1PRO SAUDE ASSOC BENEF DE ASSIS               00124232886011525           TEOTONIO SEGURADOQ401SUL S/N CJ1LT1SL301     77006016PALMAS              TO0000000000780180520120000000000 1805201200CENTRO              00000000000000000000000000000000000000000000000000          0000000000                   0034
13411615292990/1615LH ENGENHARIA E MINERACAO LTDA               LH ENGENHARIA E MINERACAO LTDA               04038078000156QD 112 SUL RUA SR 7 44                       77020176PALMAS              TO109-00000248-7 DMIFA4568     01032012040520120010000000066425800000000664258PALMAS              MN1TEBLOC FABRICACAO DE PRE-MOLDA               00109069944000190           ALAMEDA GOIAS QD. 07 LT. 11, 13, 14 STR.     77270000PALMAS              TO0000000000790180520120000000000 1805201200CENTRO              00000000000000000000000000000000000000000000000000          0000000000                   0035
13410237591847/1615LPS DISTRIBUIDORA M E LTDA                   LPS DISTRIBUIDORA M E LTDA                   08890838000290RUA UMUARAMA 59                              83325000PINHAIS             PR112-72443773-9 DMI463 3      31012012080520120010000000000748400000000007484PALMAS              MN1DECOLE DIST DE ALIMENTOS LTDA                00102942279000158           AV. NS 02 QD 602 SUL LOTE 15                 77022006PALMAS              TO0000000000800180520120000000000 1805201200PLANO DIRETO        00000000000000000000000000000000000000000000000000          0000000000                   0036
13410770908036/1615SCHREDER DO BRASIL ILUM LTDA                 SCHREDER DO BRASIL ILUM LTDA                 04205610000182                                             00000000                      112-97471446-4 DMI0000552501 09042012070520120010000000083608200000000836082PALMAS              MN1URBELUZ ENERGETICA S/A                       00100587811000645           Q 104 SUL, S/N SL 10                         77020014GURUPI              TO0000000000810180520120000000000 1805201200PLANO DIRETO        00000000000000000000000000000000000000000000000000          0000000000                   0037
13411011387105/1615S S R B QUALITY C E LTDA                     S S R B QUALITY C E LTDA                     08189587000130RUA SANTA ANGELINA 631                       07053122GUARULHOS           SP112-91342414-2 DMI2148011    02042012070520120010000000087675200000000876752PALMAS              MN1PRO SAUDE ASSOC BENEF DE ASSIS               00124232886010049           TEOTONIO SEGURADOQ401 SCJ01LT1 S/N SL301     77006016PALMAS              TO0000000000820180520120000000000 1805201200CENTRO              00000000000000000000000000000000000000000000000000          0000000000                   0038
13410758827554/1615STAR  ENJOY IND E COM EIRELI                 STAR  ENJOY IND E COM EIRELI                 07594855000137RUA PADRE RAPOSO 47                          03118000SAO PAULO           SP157-73632347-4 DMI3300-A     04042012040520120010000000001676100000000016761PALMAS              MN1PRO SAUDE ASS BEN DE ASS SOC E               00124232886010634           QUADRA 104 NORTE RUA NE,SN LOTE 31/41        77006020PALMAS              TO0000000000830180520120000000000 1805201200PLANO DIRETOR       00000000000000000000000000000000000000000000000000          0000000000                   0039
13410770908036/1615SCHREDER DO BRASIL ILUM LTDA                 SCHREDER DO BRASIL ILUM LTDA                 04205610000182                                             00000000                      112-96134650-2 DMI0000059903 27032012080520120010000000170455300000001704553PALMAS              MN1URBELUZ ENERGETICA S/A                       00100587811000645           Q 104 SUL, S/N SL 10                         77020014GURUPI              TO0000000000840180520120000000000 1805201200PLANO DIRETO        00000000000000000000000000000000000000000000000000          0000000000                   0040
13410770908036/1615SCHREDER DO BRASIL ILUM LTDA                 SCHREDER DO BRASIL ILUM LTDA                 04205610000182                                             00000000                      112-97471444-9 DMI0000552301 09042012070520120010000000271048700000002710487PALMAS              MN1URBELUZ ENERGETICA S/A                       00100587811000645           Q 104 SUL, S/N SL 10                         77020014GURUPI              TO0000000000850180520120000000000 1805201200PLANO DIRETO        00000000000000000000000000000000000000000000000000          0000000000                   0041
13410770908036/1615SCHREDER DO BRASIL ILUM LTDA                 SCHREDER DO BRASIL ILUM LTDA                 04205610000182                                             00000000                      112-97471445-6 DMI0000545302 31032012070520120010000000556097800000005560978PALMAS              MN1URBELUZ ENERGETICA S/A                       00100587811000645           Q 104 SUL, S/N SL 10                         77020014GURUPI              TO0000000000860180520120000000000 1805201200PLANO DIRETO        00000000000000000000000000000000000000000000000000          0000000000                   0042
13410770908036/1615SCHREDER DO BRASIL ILUM LTDA                 SCHREDER DO BRASIL ILUM LTDA                 04205610000182                                             00000000                      112-96134651-0 DMI0000538903 27032012080520120010000000074647400000000746474PALMAS              MN1URBELUZ ENERGETICA S/A                       00100587811000645           Q 104 SUL, S/N SL 10                         77020014GURUPI              TO0000000000870180520120000000000 1805201200PLANO DIRETO        00000000000000000000000000000000000000000000000000          0000000000                   0043
9341ITAU UNIBANCO SA                        1805201200126000000000025509664                                                                                                                                                                                                                                                                                                                                                                                                                                                                                                                                         0044
