0033BANCO SANTANDER SA                      21052012SDTBFOCRT00039500050005000500000020080431721000                                                                                                                                                                                                                                                                                                                                                                                                                                                                                                                 0001
1033YK3330004828372DARUMA TELECOMUNICACOES E INFORMATICA S/     DARUMA TELECOMUNICACOES E INFORMATICA S/     45170289000125AV INDEPENDENCIA 3500                        12032000TAUBATE             SPYK0000009901345DMICAR80262BB 03052012150520120010000000003507900000000035079PALMAS              MN1WMR SERVICOS EM TEC DA INFORMATICA LTDA      0011056897500017400000000000706 SUL ALAMEDA 15, SN                       77022408PALMAS              TO0000000001750230520120000000000D2305201200                    00000000000000000000000000000000000000000000000000          0000000000                   0002
1033YK3377004830113EMBRASIL-EMPRESA BRASILEIRA DISTRIBUIDOR     EMBRASIL EMPRESA BRASIL.DISTR.LTDA.          19166917000199BR 040 S/N KM 517                            33861410RIBEIRAO DAS NEVES  MGYK0000000321624DMI7404391    12042012110520120010000000005897400000000058974PALMAS              MN1V B FREITAS                                  0011401499500015400000000000AV D,SN,QD 41 LT 01 SL 03                    77060046PALMAS              TO0000000001760230520120000000000D2305201200                    00000000000000000000000000000000000000000000000000          0000000000                   0003
1033YK4841003007863BANCO DO ESTADO DO RIO GRANDE DO SUL SA      FLORESTAL ALIMENTOS SA                       91155259000167R CAP MONTANHA 177 4 ANDAR                   90010040PORTO ALEGRE        RSYK0000001121183DMI0000526871 30032012110520120010000000009083600000000090836PALMAS              MN1ARAUJO E CIA LTDA                            001111680980001070000000000025-QD 33 LT 1 S/N                            77062010PALMAS              TO0000000001770230520120000000000D2305201200                    00000000000000000000000000000000000000000000000000          0000000000                   0004
1033YK4841003007855BANCO DO ESTADO DO RIO GRANDE DO SUL SA      LES SOULIERS COMERCIO DE                     11849993000197R CAP MONTANHA 177 4 ANDAR                   90010040PORTO ALEGRE        RSYK0000001120744DMI0000231-3  12032012110520120010000000021897800000000218978PALMAS              MN1GISELE ALVES LEITE                           0010497433700015000000000000QUADRA 204 SUL - QL 2 - LOTE 1               77020494PALMAS              TO0000000001780230520120000000000D2305201200                    00000000000000000000000000000000000000000000000000          0000000000                   0005
1033YK3729005277167MOLDEPOL INDUSTRIA DE PERFIS E RECORTADO     MOLDEPOL INDUSTRIA DE PERFIS E RECORTADO     13979996000170RUA JOAO DIAS ESQUINA C AV CONTORNO SN       75760000CUMARI              GOYK0000000000728DMI44/C       17022012110520120010000000042529700000000425297PALMAS              MN1GURUFER IND COM E PROD SIDERURGICOS          0010339858300022000000000000RUA SR 1 QUADRA 112 LOTE,20A                 77110520PALMAS              TO0000000001790230520120000000000D2305201200                    00000000000000000000000000000000000000000000000000          0000000000                   0006
9033BANCO SANTANDER SA                      2105201200015000000000000829164                                                                                                                                                                                                                                                                                                                                                                                                                                                                                                                                         0007
